:020000040800F2
:10000000C86A0020AD020008954400088508000871
:1000100091440008B1080008515E0008000000008B
:10002000000000000000000000000000A34C0008D9
:100030003D0900080000000097440008A54C000896
:10004000C7020008C7020008C7020008C70200086C
:10005000C7020008C7020008C7020008C70200085C
:10006000C7020008C7020008C7020008C70200084C
:10007000C7020008C7020008C7020008C70200083C
:10008000C7020008C7020008C7020008C70200082C
:10009000C7020008C7020008C7020008C70200081C
:1000A000C7020008C7020008C7020008C70200080C
:1000B000E94E0008C7020008C7020008C70200088E
:1000C000C7020008C7020008C7020008C7020008EC
:1000D000C7020008D95B0008C7020008E95B0008F6
:1000E000C7020008C702000800000000C70200089D
:1000F000C7020008C7020008C7020008C7020008BC
:10010000C702000871480008C7020008C7020008BB
:10011000C7020008C7020008C7020008C70200089B
:10012000C7020008C7020008C7020008C70200088B
:10013000C7020008C7020008C7020008C70200087B
:1001400000000000000000000000000000000000AF
:10015000C7020008C7020008C7020008C70200085B
:10016000C7020008C7020008C7020008C70200084B
:10017000C7020008C7020008C7020008000000000C
:10018000C7020008C7020008C7020008C70200082B
:10019000C7020008C7020008C7020008C70200081B
:1001A000C7020008C7020008C7020008C70200080B
:1001B000C702000891430008C7020008C7020008F0
:1001C000C7020008C7020008C7020008C7020008EB
:1001D000C7020008C7020008C7020008C7020008DB
:1001E000C7020008C7020008C7020008C7020008CB
:1001F000C7020008C7020008C7020008C7020008BB
:10020000C7020008C7020008C7020008C7020008AA
:10021000C7020008C7020008C7020008C70200089A
:10022000C7020008C7020008C7020008000000005B
:10023000C7020008C702000800000000C70200084B
:10024000C7020008C7020008C7020008C70200086A
:10025000C7020008C7020008C7020008C70200085A
:10026000C7020008C7020008C7020008C70200084A
:10027000C7020008C7020008C7020008000000000B
:10028000C702000800000000C702000800000000CC
:1002900000000000C7020008DFF80CD000F070FA80
:1002A000004800478D740008C86A0020064880474F
:1002B00006480047FEE7FEE7FEE7FEE7FEE7FEE74B
:1002C000FEE7FEE7FEE7FEE7554E0008990200084C
:1002D0002DE9F05F0546002092469B46884606467B
:1002E000814640241BE0284641464746224600F00E
:1002F0007FF853465A46C01A914110D3114618460A
:10030000224600F066F82D1A67EB01084F46224698
:100310000120002100F05DF817EB00094E41201E7E
:10032000A4F10104DFDC484631462A464346BDE8D5
:10033000F09F40EA01039B0703D009E008C9121FA0
:1003400008C0042AFAD203E011F8013B00F8013B8F
:10035000521EF9D27047D2B201E000F8012B491EBB
:10036000FBD270470022F6E710B513460A46044652
:100370001946FFF7F0FF204610BD30B504460020B7
:10038000034600E05B1C934203D2E05CCD5C401B63
:10039000F8D030BD034611F8012B00F8012B002ADC
:1003A000F9D11846704730B50B460146002020228F
:1003B000012409E021FA02F59D4205D303FA02F572
:1003C000491B04FA02F52844151EA2F10102F1DCD2
:1003D00030BD202A04DB203A00FA02F100207047E9
:1003E0009140C2F1200320FA03F319439040704773
:1003F000202A04DB203A21FA02F00021704721FA7A
:1004000002F3D040C2F120029140084319467047E0
:100410002DE9FE4F804681EA0300C00F0C46009094
:1004200021F0004123F00045B8EB0200A94105D2BC
:100430004046214690461C460B46024623F00040AB
:10044000104347D0270DC7F30A00C3F30A510290A7
:10045000401A019040286BDAC3F3130040F4801B6C
:100460000098924620B10023D2EB030A63EB0B0BFA
:1004700001985946C0F140025046FFF7AAFF0646D0
:100480000D4650465946019A00F08CF910EB0800D1
:100490006141002487EA115284EAE7731A4340D08D
:1004A000009A62B3019A012A4FEA075215DC001B39
:1004B00061EB02014FF0004202EA0752CDE900422F
:1004C000001C41F5801132462B4600F08CF903B038
:1004D000BDE8F08F40462146F9E7001B61EB0201C1
:1004E000001C41F5801300185B412018A2F500178D
:1004F00047EB030140EAD570B6196D4111E06D0874
:100500004FEA360645EAC0754FEA0752001B61EB19
:100510000201001C41F5801149084FEA3000001922
:10052000514132462B4603B0BDE8F04F00F04CB9C4
:100530000098012240000023D0EB020263EBE0733D
:10054000009821464FEAE074B8EB000061EB04012B
:10055000E9E783F000435BE781F0004158E72DE9CC
:10056000FE4F81EA030404F0004421F000410094AE
:100570004FF0000B23F0004350EA01045ED052EA32
:1005800003045BD0C3F30A54C1F30A552C44A4F20C
:10059000F3340194A0FB0254C1F3130141F4801120
:1005A000C3F3130343F4801301FB024400FB034E27
:1005B000840A970A44EA815447EA8357A4FB0768F0
:1005C00002958D0A05FB07854FEA932C04FB0C541A
:1005D0002705029D4FEA065847EA1637B5EB08058E
:1005E0006EEB070C870E920E47EA811742EA8312E0
:1005F000A7FB0201B6EB0B0164EB00042B0D43EAF1
:100600000C335E1844EB1C50DA465146E7FB0201FE
:10061000C5F313044FEA0B3343EA14534FEA043291
:10062000019C43EA0603A4F10C040294009CCDE96A
:1006300000B400F0D8F803B0BDE8F08F0020014608
:10064000F9E72DE9F04D81EA030404F0004B21F0B5
:10065000004514464FF0000A23F0004150EA05021D
:1006600020D054EA01021DD0C5F30A570246C5F353
:100670001303C1F31300C1F30A5640F4801543F489
:100680008013A7EB0608101BD64608F2FD3873EB63
:10069000050002D308F1010801E092185B41B8F1AE
:1006A000000F03DA00200146BDE8F08D00204FF472
:1006B0008011064684460EE0171B73EB050705D331
:1006C000121B63EB050306434CEA010C49084FEA91
:1006D000300092185B4150EA0107EDD152EA030065
:1006E00012D082EA040083EA0501084305D0101BFA
:1006F000AB4106D20122002306E000224FF0004366
:1007000002E06FF0010253101AEB06004CEB0851A7
:1007100010EB0A0041EB0B01BDE8F04D00F054B8BE
:10072000C1F30A52C1F3130140F2FF3341F48011C7
:100730009A4202DA00200146704740F233439A425F
:10074000A2F2334202DC5242FFF752BEFFF741BE33
:1007500030B5041E71F1000404DB4FF00044404248
:1007600064EB0101141E73F1000405DB1C464FF01D
:100770000043524263EB0403994208BF904230BDEC
:10078000064C074D06E0E06840F0010394E80700DE
:1007900098471034AC42F6D3FFF782FD84AF0008CF
:1007A000A4AF0008202A06DBCB17203A41FA02F05A
:1007B00043EAE07306E041FA02F3D040C2F12002BE
:1007C000914008431946704710B5141E73F1000498
:1007D00008DA401C41F1000192185B411A4301D133
:1007E00020F0010010BD2DE9F04D92469B4611B15D
:1007F000B1FA81F202E0B0FA80F220329046FFF7BF
:10080000E8FD04460F4640EA0A0041EA0B01534660
:100810005A46084313D0114653EA010019D0C8F1D3
:1008200040025046FFF7E4FD05460E465046594645
:100830004246FFF7CEFD084305D0012004E02046E4
:100840003946BDE8F08D0020054346EAE0762C43AA
:1008500037430A986305E40AA0EB08000022FD0A6A
:1008600044EA47540A3002D500200146E9E7010571
:1008700010196941DDE9084500196941BDE8F04DED
:10088000A2E700001EF0040F0CBFEFF30880EFF3A7
:10089000098003F0C3BB704701200149086070471D
:1008A000DC0000200120014908607047D8000020CA
:1008B00000BFFEE710B503F09DFF03F04DFF10BD34
:1008C00010B504460CB9124810BD012C01D100200E
:1008D000FAE7022C01D10F48F6E7032C01D10020E2
:1008E000F2E7042C01D10020EEE7052C01D1002015
:1008F000EAE7062C01D10020E6E7072C01D1002011
:10090000E2E74FF48E7104A000F06AF90020DBE703
:10091000401600206C1E00202E2E5C2E2E5C55737F
:1009200065725C6273705C7372635C6273705F7536
:100930006172745F6669666F2E6300007047000025
:1009400008B500243E48021D01683EA005F082FA69
:100950003B48028B4069010D44A005F07BFA07F08B
:1009600065FE6CE006F0B0F86946002006F0E8FB92
:10097000002864D09DF80000352837D008DC3128E5
:100980000FD0322816D033281DD0342853D123E07D
:10099000582840D05A2833D078283BD07A284AD1DA
:1009A0002DE04FF4805200213AA005F053FA07F0F1
:1009B00041FF43E04FF48052002142A005F04AFA83
:1009C00008F0AEF83AE04BA005F044FA51A005F06B
:1009D00041FA07F00FFF31E05AA005F03BFA62A0A0
:1009E00005F038FA552008F023F827E0144840694C
:1009F000010D69A005F02EFA07F08CFF1EE000BF84
:100A00000CB1641E02E06EA005F024FAA00207F00B
:100A1000CDFF13E000BF0A4840690121C1EB9020DF
:100A2000A04201D9641C02E069A005F013FAA002FB
:100A300007F0BCFF02E007F0F9FD00BF00BF91E73F
:100A400060480020BCECB2E2B5BDB4AED0D0466C7C
:100A50006173682C204944203D20253038582C20D3
:100A6000D0CDBAC53A202573200D0A0020202020C1
:100A7000C8DDC1BF203A2025644DD7D6BDDA2C2071
:100A8000C9C8C7F8B4F3D0A1203A202564D7D6BD91
:100A9000DA0D0A000D0AA1BE31202D20B6C1B4AE78
:100AA000D0D0466C6173682C20B5D8D6B73A307870
:100AB00025582CB3A4B6C83A2564D7D6BDDAA1BF51
:100AC0000D0A00000D0AA1BE32202D20D0B4B4AE14
:100AD000D0D0466C6173682C20B5D8D6B73A307840
:100AE00025582CB3A4B6C83A2564D7D6BDDAA1BF21
:100AF0000D0A00000D0AA1BE33202D20B2C1B3FDA6
:100B0000D5FBB8F6B4AED0D0466C617368A1BF0D0A
:100B10000A000000D5FBB8F6466C617368B2C1B339
:100B2000FDCDEAB1CFB4F3B8C5D0E8D2AA3230C314
:100B3000EBD7F3D3D2A3ACC7EBC4CDD0C4B5C8B404
:100B4000FD0000000D0AA1BE34202D20D0B4D5FB3D
:100B5000B8F6B4AED0D0466C6173682C20C8AB3008
:100B6000783535A1BF0D0A00D5FBB8F6466C617328
:100B700068D0B4C8EBCDEAB1CFB4F3B8C5D0E8D2F1
:100B8000AA3230C3EBD7F3D3D2A3ACC7EBC4CDD0DA
:100B9000C4B5C8B4FD0000000D0AA1BE35202D204B
:100BA000B6C1D5FBB8F6B4AED0D0466C6173682C34
:100BB0002025644DD7D6BDDAA1BF0D0A0000000084
:100BC000D2D1BEADCAC7D7EEC7B00D0A0000000033
:100BD000D2D1BEADCAC7D7EEBAF30D0A00000000ED
:100BE00001B9704700BFFEE770B504461D460023FB
:100BF000B5F5804F13D154F822300C480340D1E9A9
:100C0000000640EA06108E6840EA06208E8940EA17
:100C100006408E693043034344F8223003E06FF00E
:100C2000704044F82200002070BD00000000F0CFAA
:100C300010B502460023086852F820301B480340D4
:100C4000D1E901042043CC6820430C6920434C695E
:100C500020438C692043CC6920430C6A20434C6AB2
:100C600020438C6A2043CC6A20430C6B20438C6B5E
:100C700020434C6B204303438868082801D143F08C
:100C80004003086842F82030086BB0F5801F05D19A
:100C9000086818B110680C6B20431060086818B120
:100CA00010684C6B20431060002010BD8004C0FF12
:100CB00030B5034614460022601C53F8202002F091
:100CC0004042D1E9000540EA05108D6840EA052060
:100CD0008D8940EA0545088A401E45EA0055087D91
:100CE000801E45EA00608D6928430243601C43F87A
:100CF0002020186800F4801038B1586820F4700281
:100D0000088A401E42EA00525A60002030BD0000AE
:100D10000348006840F00100014908607047000086
:100D200020040058F8B502460B4600210026002496
:100D30000020824D00BFFCE0012707FA01F61F6882
:100D400007EA0604B4427CD15F68022F02D05F68D4
:100D5000122F1AD14FEAD10C02F1200757F82C00BC
:100D60004F074FEAD76C0F2707FA0CF7B8434FEA43
:100D7000417C4FEADC6C1F6907FA0CF738434FEAF5
:100D8000D10C02F1200747F82C0010684FEA410C03
:100D9000032707FA0CF7B8431F7907F003074FEA58
:100DA000410C07FA0CF7384310605F68012F08D038
:100DB0005F68022F05D05F68112F02D05F68122F85
:100DC00017D190684FEA410C032707FA0CF7B84394
:100DD0004FEA410CDF6807FA0CF73843906050681F
:100DE00001278F40B8431F79C7F300178F4038435E
:100DF0005060D0684FEA410C032707FA0CF7B8435C
:100E00004FEA410C9F6807FA0CF73843D0605F68DF
:100E100007F08057B7F1805F95D100BF484F3F681A
:100E200047F00207DFF818C1CCF8007067463F684A
:100E300007F00207009700BF00BF424F4FEA910C36
:100E400000E075E057F82C008F074FEA177C0F275A
:100E500007FA0CF7B8433C4FBA4201D100272DE006
:100E60003A4FBA4201D1012728E0394FBA4201D1A5
:100E7000022723E0374FBA4201D103271EE0364F45
:100E8000BA4201D1042719E0344FBA4201D10527F3
:100E900014E0334FBA4201D106270FE0314FBA4276
:100EA00001D107270AE0304FBA4201D1082705E0F7
:100EB0002E4FBA4201D1092700E00A274FEA817C70
:100EC0004FEA1C7C07FA0CF738431E4F4FEA910C8F
:100ED00047F82C002868A0435F6807F48037B7F50F
:100EE000803F00D1204328606868A0435F6807F412
:100EF0000037B7F5003F00D1204368604FF0B0479E
:100F00003868A0435F6807F48017B7F5801F00D1E9
:100F100020434FF0B04738607868A0435F6807F41B
:100F20000017B7F5001F00D120434FF0B04778609D
:100F3000491C1029FFF400AFF8BD000080000058E4
:100F4000F4440258080400580000025800040258F3
:100F500000080258000C02580010025800140258F1
:100F600000180258001C02580020025800240258A1
:100F70000AB1018300E04183704700000148006826
:100F800070470000BC00002003480068034909784E
:100F90000844014908607047BC000020C4000020DC
:100FA00010B5032000F0FEF80F2000F007F808B19C
:100FB000012010BD00F0A8F80020FAE770B5044643
:100FC0000E4800784FF47A71B1FBF0F00C490968D3
:100FD000B1FBF0F5284602F0A2FE08B1012070BD79
:100FE000102C07D200222146501E00F09EF8054822
:100FF000046001E00120F2E70020F0E7C4000020D7
:10100000C8000020C00000200146022081F8360000
:101010000868006920F001000A6810610868C0686B
:1010200020F400200A68D0600868806820F0010081
:101030000A689060012081F83600002070470000A7
:101040004178154A11600178F9B1121D41681160AB
:10105000017B0907C27A41EA0261827A41EAC24110
:10106000427B41EA8241827B41EA4241C27B41EAC2
:101070000241427A41EA0221027A41EA42010278BF
:101080001143054A0832116005E00021024A121D91
:101090001160121D1160704798ED00E000BF00BFA5
:1010A00000BFBFF35F8F00BF00BF00BF05480068EF
:1010B00020F4803003490860002002497031086044
:1010C0007047000024ED00E040F001010D4A11607E
:1010D0000C497039096841F480310A4A703A11604C
:1010E00000BF00BF00BFBFF34F8F00BF00BF00BFF6
:1010F00000BF00BF00BFBFF36F8F00BF00BF00BFC6
:101100007047000094ED00E0704701460846002853
:1011100009DB00F01F0301229A4043099B0003F101
:10112000E023C3F8002100BF70472DE9F05F80463F
:101130000D46164604F0B4FE074639462A463346A5
:1011400001F00700C0F1070ABAF1040F02D94FF00D
:10115000040A01E0C0F1070AD14600F1040ABAF11D
:10116000070F02D24FF0000A01E0A0F1030AD446B3
:101170004FF0010A0AFA09FAAAF1010A0AEA020A78
:101180000AFA0CFA4FF0010B0BFA0CFBABF1010B56
:101190000BEA030B4AEA0B042146404604F088FEA2
:1011A000BDE8F09F00BF00F00702064B19684FF63C
:1011B000FF031940044B0B4343EA0221014B196022
:1011C00000BF70470CED00E00000FA0510B501F01B
:1011D00067F90949096801F470614FF4807292FA65
:1011E000A2F2B2FA82F2D140044A515CC8400449EA
:1011F00008600846006810BD18440258BAA80008E4
:10120000C800002010B501F003F90749096801F092
:101210007001102292FAA2F2B2FA82F2D140034A8D
:10122000515CC84010BD000020440258BAA8000814
:1012300070B5014600220120002300249FED811A91
:10124000B0EE410A9FED7F1AF0EE410A7E4D2D6807
:1012500005F003027C4D2D68C5F305307A4D2D1D38
:101260002D6805F01003784D14352D68C5F3CC05B5
:1012700015FB03F501EE105AB8EE411AB0EE410A23
:1012800022B1012A4DD0022A7DD169E06E4D283D60
:101290002D68C5F340152DB36B4D283D2D68C5F362
:1012A000C1066A4D25FA06F4B4FBF0F501EE105ABA
:1012B000F8EE411A9FED661A80EE012A624D103554
:1012C0002D68C5F3080501EE105AB8EE411A32EE4A
:1012D000011AB7EE002A31EE021A21EE811AF0EE61
:1012E000410A1DE0594DB5FBF0F501EE105AF8EE3C
:1012F000411A9FED571A80EE012A534D10352D6883
:10130000C5F3080501EE105AB8EE411A32EE011A83
:10131000B7EE002A31EE021A21EE811AF0EE410AF0
:101320005EE04C4DB5FBF0F501EE105AB8EE412AE7
:101330009FED471AC0EE011A434D10352D68C5F3D5
:10134000080501EE105AB8EE411A31EE811AF7EE97
:10135000001A31EE211A22EE011AF0EE410A3FE0A6
:101360003D4DB5FBF0F501EE105AF8EE411A9FED38
:10137000381A80EE012A344D10352D68C5F3080562
:1013800001EE105A00E00CE0B8EE411A32EE011AFC
:10139000B7EE002A31EE021A21EE811AF0EE410A70
:1013A0001EE02C4DB5FBF0F501EE105AB8EE412AC7
:1013B0009FED271AC0EE011A234D10352D68C5F395
:1013C000080501EE105AB8EE411A31EE811AF7EE17
:1013D000001A31EE211A22EE011AF0EE410A00BF86
:1013E00000BF194D10352D68C5F346256D1C01EE63
:1013F000105AB8EE411AC0EE811ABCEEE11A81ED26
:10140000001A114D10352D68C5F306456D1C01EE0F
:10141000105AB8EE411AC0EE811ABCEEE11A81ED05
:10142000011A094D10352D68C5F306656D1C01EED6
:10143000105AB8EE411AC0EE811ABCEEE11A81EDE5
:10144000021A70BD00000000284402580090D0032A
:101450000000004600093D0040787D0170B501465E
:1014600000220120002300249FED811AB0EE410AE2
:101470009FED7F1AF0EE410A7E4D2D6805F00302C4
:101480007C4D2D68C5F305507A4D2D1D2D6805F452
:101490008073784D1C352D68C5F3CC0515FB03F51D
:1014A00001EE105AB8EE411AB0EE410A22B1012AFB
:1014B0004DD0022A7DD169E06E4D283D2D68C5F3DF
:1014C00040152DB36B4D283D2D68C5F3C1066A4DFF
:1014D00025FA06F4B4FBF0F501EE105AF8EE411AC5
:1014E0009FED661A80EE012A624D18352D68C5F30E
:1014F000080501EE105AB8EE411A32EE011AB7EEA5
:10150000002A31EE021A21EE811AF0EE410A1DE0A6
:10151000594DB5FBF0F501EE105AF8EE411A9FED6A
:10152000571A80EE012A534D18352D68C5F308056A
:1015300001EE105AB8EE411A32EE011AB7EE002A47
:1015400031EE021A21EE811AF0EE410A5EE04C4DB6
:10155000B5FBF0F501EE105AB8EE412A9FED471A9F
:10156000C0EE011A434D18352D68C5F3080501EE8C
:10157000105AB8EE411A31EE811AF7EE001A31EE28
:10158000211A22EE011AF0EE410A3FE03D4DB5FB73
:10159000F0F501EE105AF8EE411A9FED381A80EE80
:1015A000012A344D18352D68C5F3080501EE105A8F
:1015B00000E00CE0B8EE411A32EE011AB7EE002A54
:1015C00031EE021A21EE811AF0EE410A1EE02C4D96
:1015D000B5FBF0F501EE105AB8EE412A9FED271A3F
:1015E000C0EE011A234D18352D68C5F3080501EE2C
:1015F000105AB8EE411A31EE811AF7EE001A31EEA8
:10160000211A22EE011AF0EE410A00BF00BF194D67
:1016100018352D68C5F346256D1C01EE105AB8EE3D
:10162000411AC0EE811ABCEEE11A81ED001A114D8B
:1016300018352D68C5F306456D1C01EE105AB8EE3D
:10164000411AC0EE811ABCEEE11A81ED011A094D72
:1016500018352D68C5F306656D1C01EE105AB8EEFD
:10166000411AC0EE811ABCEEE11A81ED021A70BD7A
:1016700000000000284402580090D00300000046FB
:1016800000093D0040787D012DE9F0410446002528
:101690000026206800F00060B0F1006F30D1606E6D
:1016A00048B1B0F5801F0DD0B0F5001F10D0B0F5D7
:1016B000401F15D113E0F948006840F40030F749A5
:1016C00008600FE00221201D02F0E6FE054609E059
:1016D000022104F1240002F077FF054602E001E058
:1016E000012500BF00BF55B9EC482430006820F444
:1016F0004010616E0843E9492431086000E02E4340
:10170000208800F48070B0F5807F2DD1606D0528B1
:101710001AD2DFE800F0030A10171800DF4800684B
:1017200040F40030DD49086010E00021201D02F087
:10173000B3FE05460AE0002104F1240002F044FF54
:10174000054603E002E001E0012500BF00BF55B9F6
:10175000D2482430006820F00700616D0843CF496B
:101760002431086000E02E43208800F40070B0F5BA
:10177000007F33D1A06D802817D003DC40B1402812
:101780001CD10CE0C02817D0B0F5807F16D114E032
:10179000C248006840F40030C049086010E00021F1
:1017A000201D02F079FE05460AE0002104F1240024
:1017B00002F00AFF054603E002E001E0012500BF58
:1017C00000BF55B9B5482430006820F4E070A16D21
:1017D0000843B2492431086000E02E43208800F419
:1017E0008060B0F5806F38D1D4F8A400B0F5800FD8
:1017F00019D004DC50B1B0F5001F1DD10DE0B0F5DB
:10180000C00F17D0B0F5000F16D114E0A348006840
:1018100040F40030A149086010E00021201D02F0D2
:101820003BFE05460AE0002104F1240002F0CCFE54
:10183000054603E002E001E0012500BF00BF5DB9FD
:1018400096482C30006820F46000D4F8A4100843B7
:1018500092492C31086000E02E43208800F400609B
:10186000B0F5006F38D1D4F8A800B0F1007F19D0DE
:1018700004DC50B1B0F1807F1DD10DE0B0F1407FAC
:1018800017D0B0F1806F16D114E08448006840F49E
:1018900000308249086010E00021201D02F0FCFDAC
:1018A00005460AE0002104F1240002F08DFE054601
:1018B00003E002E001E0012500BF00BF5DB9774809
:1018C0002C30006820F0E060D4F8A8100843734979
:1018D0002C31086000E02E43206800F00070B0F169
:1018E000007F27D1A06CA0B1102804D0202809D0F7
:1018F00030280FD10CE06948006840F40030674997
:10190000086009E00221201D02F0C6FD054603E043
:1019100002E001E0012500BF00BF55B95F4820305B
:10192000006820F03000A16C08435C492031086059
:1019300000E02E43208800F48050B0F5805F36D15F
:10194000E06DB0F5005F19D004DC50B1B0F5805FF8
:101950001DD10DE0B0F5405F17D0B0F5804F16D126
:1019600014E04E48006840F400304C49086010E034
:101970000021201D02F090FD05460AE0002104F13F
:10198000240002F021FE054603E002E001E001250B
:1019900000BF00BF55B941482430006820F4E04042
:1019A000E16D08433D492431086000E02E43208862
:1019B00000F40050B0F5005F34D1206EB0F5403F28
:1019C0001DD007DC68B1B0F5803F0BD0B0F5003F0B
:1019D00018D10DE0B0F5802F12D0B0F5A02F11D1A5
:1019E0000FE011E00121201D02F056FD05460BE03D
:1019F000012104F1240002F0E7FD054604E003E0C4
:101A000002E001E0012500BF00BF55B923482430A2
:101A1000006820F4E020216E08432049243108604A
:101A200000E02E43208800F48040B0F5804F38D18C
:101A3000D4F8AC00B0F1405F1DD007DC68B1B0F164
:101A4000805F0BD0B0F1005F18D10DE0B0F1804F96
:101A500012D0B0F1A04F11D10FE011E00121201DF3
:101A600002F01AFD05460BE0012104F1240002F00A
:101A7000ABFD054604E003E002E001E0012500BF04
:101A800000BF6DB905482C30006820F0E040D4F864
:101A9000AC10084301492C31086002E02C44025884
:101AA0002E43208800F40040B0F5004F26D1E06EB0
:101AB00098B1B0F1805F03D0B0F1005F0ED106E0C5
:101AC000FA48006840F40030F849086008E0012155
:101AD000201D02F0E1FC054602E001E0012500BF07
:101AE00000BF55B9F1482430006820F04050E16E45
:101AF0000843EE492431086000E02E43206800F0DE
:101B00008070B0F1807F27D1606CA0B1012804D033
:101B1000022809D003280FD10CE0E448006840F403
:101B20000030E249086009E00221201D02F0B4FC07
:101B3000054603E002E001E0012500BF00BF55B902
:101B4000DA482030006820F00300616C0843D74970
:101B50002031086000E02E43206800F48000B0F5DA
:101B6000800F7DD1D248006840F48070D049086071
:101B7000FFF704FA074606E0FFF700FAC01B6428E7
:101B800001D9032505E0CA48006800F480700028E8
:101B9000F2D000BF8DBBC5484430006800F44070EF
:101BA000B4F8B01001F44071884214D0BF484430FA
:101BB000006820F44078BD484430006840F480302C
:101BC000BA49443108600846006820F48030086053
:101BD0000846C0F80080D4F8B000B0F5807F15D179
:101BE000FFF7CCF9074609E0FFF7C8F9C01B41F23F
:101BF0008831884202D9032507E038E0AB484430F9
:101C00000068C0F340000028EED000BF4DBB00BF0D
:101C1000B4F8B00000F44070B0F5407F0ED1A34896
:101C20001C38006820F47C51A24AD4F8B00010405F
:101C300041EA10109D491C39086007E09B481C3898
:101C4000006820F47C5099491C390860974844305A
:101C50000068B4F8B010C1F30B010843934901E0E8
:101C600006E002E04431086002E02E4300E02E432B
:101C7000207800F0010068B3A06F182819D005DCA7
:101C800048B1082808D0102816D10BE0202811D020
:101C9000282811D10FE011E00121201D02F0FCFBEA
:101CA00005460BE0012104F1240002F08DFC0546FD
:101CB00004E003E002E001E0012500BF00BF55B9E8
:101CC0007A482830006820F03800A16F084377492F
:101CD0002831086000E02E43207800F0020002283E
:101CE00028D1606F062815D2DFE800F003040A113E
:101CF000121311E00121201D02F0CEFB05460BE07E
:101D0000012104F1240002F05FFC054604E003E039
:101D100002E001E0012500BF00BF55B9634828304B
:101D2000006820F00700616F0843604928310860AF
:101D300000E02E43207800F0040004282AD1D4F8D3
:101D40009000062815D2DFE800F003040A111213F0
:101D500011E00121201D02F09FFB05460BE001214F
:101D600004F1240002F030FC054604E003E002E048
:101D700001E0012500BF00BF5DB94C482C30006870
:101D800020F00700D4F89010084348492C3108602F
:101D900000E02E43207800F02000202836D1D4F82F
:101DA0008C00B0F1405F1DD007DC68B1B0F1805FFE
:101DB0000BD0B0F1005F18D10DE0B0F1804F12D020
:101DC000B0F1A04F11D10FE011E00021201D02F071
:101DD00063FB05460BE0022104F1240002F0F4FB52
:101DE000054604E003E002E001E0012500BF00BF7A
:101DF0005DB92E482830006820F0E040D4F88C10FF
:101E000008432A492831086000E02E43207800F07A
:101E10004000402836D1D4F89800B0F5406F1DD06E
:101E200007DC68B1B0F5806F0BD0B0F5006F18D14A
:101E30000DE0B0F5805F12D0B0F5A05F11D10FE0DA
:101E400011E00021201D02F027FB05460BE00221D6
:101E500004F1240002F0B8FB054604E003E002E0D0
:101E600001E0012500BF00BF5DB910482C300068BB
:101E700020F4E050D4F8981008430C492C31086045
:101E800000E02E43207800F0800080283BD1D4F879
:101E90009C00B0F5C04F24D00EDCA0B1B0F5005FBF
:101EA00012D0B0F5804F1FD114E000002C4402582E
:101EB00000480258FFFCFF0FB0F5004F12D0B0F5FC
:101EC000204F11D10FE011E00021201D02F0E4FAB3
:101ED00005460BE0022104F1240002F075FB0546E3
:101EE00004E003E002E001E0012500BF00BF4DB9BE
:101EF000B248006820F46040D4F89C100843AF4911
:101F0000086000E02E43207800F00800082816D171
:101F1000D4F88000B0F5805F06D1022104F12400DE
:101F200002F052FB06430AE0A448001F006820F4B8
:101F30004050D4F880100843A049091F0860207859
:101F400000F01000102814D1D4F89400B0F5807F70
:101F500006D1022104F1240002F036FB064308E01A
:101F60009648006820F44070D4F8941008439349D0
:101F70000860206800F40020B0F5002F26D1D4F8C6
:101F8000A00030B1B0F5803F09D0B0F5003F0ED1D0
:101F90000CE00021201D02F07FFA054609E0022135
:101FA00004F1240002F010FB054602E001E00125E7
:101FB00000BF00BF4DB98148006820F44030D4F81C
:101FC000A01008437D49086000E02E43206800F41B
:101FD0008020B0F5802F2DD1D4F88400B0F5801F7B
:101FE00006D0B0F5001F0CD0B0F5401F11D10FE0A6
:101FF00072482C38006840F4003070492C39086071
:1020000009E0012104F1240002F0DEFA054602E0B5
:1020100001E0012500BF00BF5DB96848001F0068EE
:1020200020F44010D4F8841008436449091F086064
:1020300000E02E43206800F48030B0F5803F24D1CA
:10204000E06C18B1B0F5803F0FD108E05B482C3848
:10205000006840F4003059492C39086007E002213B
:10206000201D02F019FA054601E0012500BF00BF5E
:1020700055B952480C38006820F48030E16C0843B0
:102080004E490C39086000E02E43206800F00050F3
:10209000B0F1005F05D1022104F1240002F094FAAE
:1020A0000643206800F40030B0F5003F27D1E06F10
:1020B000A0B1B0F5807F06D0B0F5007F0CD0B0F5B0
:1020C000407F0CD109E03D482C38006840F40030D6
:1020D0003A492C39086004E003E002E001E0012500
:1020E00000BF00BF55B93548001F006820F440709C
:1020F000E16F08433149091F086000E02E43206862
:1021000000F48010B0F5801F09D12C480838006811
:1021100020F00040216F08432849083908602068F2
:1021200000F08050B0F1805F0AD124484838006840
:1021300020F48040D4F8B41008432049483908609E
:10214000206800F40010B0F5001F09D11B480838C2
:10215000006820F08070A16E0843184908390860B3
:10216000206800F08040B0F1804F11D100BF1348CB
:102170004838006820F40040104948390860084693
:102180000068D4F8B81008430C494839086000BF0B
:10219000206800F00040B0F1004F09D107480C382A
:1021A000006820F04050216D084304490C39086054
:1021B00016B90020BDE8F0810120FBE75844025821
:1021C00070B504460D4600268D48006800F00700F3
:1021D000A8420ED28A48006820F0070028438849A8
:1021E00008600846006800F00700A84201D00120FE
:1021F00070BD207800F00200022807D181480068F5
:1022000020F00F00E16808437E490860207800F064
:102210000100002851D07B48006820F47060A1685C
:102220000843784908606068022807D17548183863
:102230000068C0F34040F8B90120D9E7606803287E
:1022400007D1704818380068C0F34060A0B9012079
:10225000CEE76068012807D16A4818380068C0F3E3
:10226000002048B90120C3E7664818380068C0F369
:10227000800008B90120BBE762480838006820F0F8
:102280000700616808435F4908390860FEF776FE79
:1022900006466068022811D108E0FEF76FFE801B39
:1022A00041F28831884201D90320A1E75548083816
:1022B000006800F038001028EFD13AE06068032889
:1022C00011D108E0FEF75AFE801B41F288318842A6
:1022D00001D903208CE74B480838006800F038002B
:1022E0001828EFD125E06068012811D108E0FEF739
:1022F00045FE801B41F28831884201D9032077E7EF
:1023000040480838006800F038000828EFD110E095
:1023100008E0FEF733FE801B41F28831884201D984
:10232000032065E737480838006800F038000028C7
:10233000EFD13348006800F00700A8420ED93048BA
:10234000006820F0070028432D490860084600680F
:1023500000F00700A84201D0012049E7207800F0F2
:102360000400042807D12748006820F07000216984
:10237000084324490860207800F00800082809D1A3
:102380002048001D006820F07000616908431D4965
:10239000091D0860207800F01000102809D11948A4
:1023A000001D006820F4E060A16908431549091D7B
:1023B0000860207800F02000202809D1114808305A
:1023C000006820F07000E16908430E490831086098
:1023D00000F066F80B49096801F470614FF48072EF
:1023E00092FAA2F2B2FA82F2D140074A515CC84096
:1023F000064908600F20FEF7E1FD0020F8E6000026
:102400000020005218440258BAA80008C800002052
:1024100010B5FEF7DBFE0949096801F00F01012242
:1024200092FAA2F2B2FA82F2D140054A515CC84057
:10243000044908600846006810BD000018440258AE
:10244000BAA80008CC00002010B5FFF7E1FF07494B
:10245000096801F07001102292FAA2F2B2FA82F237
:10246000D140034A515CC84010BD00001C440258D2
:10247000BAA8000810B5FFF7CBFF0749096801F4B7
:10248000E0614FF4807292FAA2F2B2FA82F2D14085
:10249000024A515CC84010BD1C440258BAA800084A
:1024A00070B5012500EE905A00220121002300247E
:1024B000DFED861AB0EE610ADFED841AB0EE611A24
:1024C0000020834D2D6805F0380535B1082D15D055
:1024D000102D15D0182D7CD114E07D4D103D2D68A8
:1024E000C5F3401545B17A4D103D2D68C5F3C106C1
:1024F000784D25FA06F000E07648E5E07648E3E01E
:102500007648E1E0724D18352D6805F00302704DF4
:1025100018352D68C5F305116D4D1C352D6805F076
:1025200001036B4D24352D68C5F3CC0515FB03F570
:1025300001EE905AF8EE611AB0EE610A22B1012A5A
:102540004FD0022A7DD16BE0614D103D2D68C5F35F
:1025500040152DB35E4D103D2D68C5F3C1065D4D90
:1025600025FA06F4B4FBF1F501EE905AB8EE612AB3
:10257000DFED5B1AC0EE212A554D20352D68C5F3DD
:10258000080501EE905AF8EE611A72EEA11AF7EE04
:10259000002A71EEA21A62EE211AB0EE611A1FE053
:1025A0004C4DB5FBF1F501EE905AB8EE612ADFED26
:1025B0004C1AC0EE212A464D20352D68C5F308057A
:1025C00001EE905AF8EE611A72EEA11AF7EE002AA7
:1025D00000E077E071EEA21A62EE211AB0EE611A05
:1025E0005EE03D4DB5FBF1F501EE905AB8EE612A83
:1025F000DFED3B1AC0EE212A354D20352D68C5F39D
:10260000080501EE905AF8EE611A72EEA11AF7EE83
:10261000002A71EEA21A62EE211AB0EE611A3FE0B2
:102620002E4DB5FBF1F501EE905AB8EE612ADFEDC3
:102630002C1AC0EE212A264D20352D68C5F3080539
:1026400000E00EE001EE905AF8EE611A72EEA11A67
:10265000F7EE002A71EEA21A62EE211AB0EE611AAC
:102660001EE01D4DB5FBF1F501EE905AF8EE612A22
:10267000DFED1B1A80EE212A154D20352D68C5F39C
:10268000080501EE905AF8EE611A72EE211AB7EEC3
:10269000002A71EE821A62EEA11AB0EE611A00BF32
:1026A00000BF0B4D20352D68C5F346256D1C00EE8F
:1026B000905AF8EE601A81EE212AFCEEC21A11EE51
:1026C000900A01E0044800BF00BF70BD0000000098
:1026D000104402580090D00300093D0040787D016D
:1026E0000000004670B504460025207800F0010087
:1026F000002872D0F948006800F0380010280CD08B
:10270000F648006800F03800182812D1F348183055
:10271000006800F0030002280BD1F0481038006870
:10272000C0F3404000286DD0606800286AD10120C5
:1027300070BD00BF6068B0F5803F08D1E748103831
:10274000006840F48030E549103908602EE0606888
:1027500068B9E2481038006820F48030DF49103949
:1027600008600846006820F4802008601EE0606869
:10277000B0F5A02F0DD1D9481038006840F4802062
:10278000D649103908600846006840F48030086077
:102790000CE0D2481038006820F48030CF4910395E
:1027A00008600846006820F48020086000BF606868
:1027B000A0B1FEF7E3FB054608E0FEF7DFFB401B98
:1027C00041F28831884201D90320B1E7C34810386B
:1027D0000068C0F340400028EFD013E0FEF7CEFBC6
:1027E000054608E0FEF7CAFB401B41F288318842EB
:1027F00001D903209CE7B94810380068C0F3404075
:102800000028EFD1207800F00200022847D1B34819
:10281000006800F0380058B1B048006800F0380097
:1028200018283ED1AD481830006800F00300B8BB4E
:10283000AA4810380068C0F3800018B1E06808B9F1
:10284000012075E7A5481038006820F01900E168FC
:102850000843A24910390860FEF790FB054606E0E0
:10286000FEF78CFB401B022801D9032060E79B4840
:1028700010380068C0F380000028F1D097480C3869
:10288000006820F47C304FF47C3292FAA2F2B2FA63
:1028900082F221699140084390490C3908604AE06E
:1028A000FFE7E06868B38D481038006820F0190031
:1028B000E1680843894910390860FEF75FFB054667
:1028C00006E0FEF75BFB401B022801D903202FE73F
:1028D000824810380068C0F380000028F1D07F489B
:1028E0000C38006820F47C304FF47C3292FAA2F26B
:1028F000B2FA82F221699140084378490C390860A4
:1029000019E076481038006820F00100734910394A
:102910000860FEF733FB054606E0FEF72FFB401B81
:10292000022801D9032003E76C4810380068C0F37F
:1029300080000028F1D1207800F01000102877D115
:102940006648006800F0380008280CD0634800682A
:1029500000F03800182823D160481830006800F0D3
:10296000030001281CD15D4810380068C0F3002026
:1029700020B1E069802801D00120D9E657480C3801
:10298000006820F0F8404FF0F84292FAA2F2B2FA52
:1029900082F2216A9140084350490C39086047E0AF
:1029A000E06958B34D481038006840F080004B494A
:1029B00010390860FEF7E2FA054606E0FEF7DEFA97
:1029C000401B022801D90320B2E6444810380068B1
:1029D000C0F300200028F1D040480C38006820F0F7
:1029E000F8404FF0F84292FAA2F2B2FA82F2216A6B
:1029F0009140084339490C39086019E037481038CC
:102A0000006820F08000354910390860FEF7B6FAFA
:102A1000054606E0FEF7B2FA401B022801D9032062
:102A200086E62E4810380068C0F300200028F1D157
:102A3000207800F00800082836D16069D0B1274816
:102A40006430006840F00100244964310860FEF7FA
:102A500095FA054606E0FEF791FA401B022801D9D7
:102A6000032065E61D4864300068C0F3400000287C
:102A7000F1D019E019486430006820F001001749CE
:102A800064310860FEF77AFA054606E0FEF776FA4A
:102A9000401B022801D903204AE610486430006830
:102AA000C0F340000028F1D1207800F02000202859
:102AB00034D1A069D8B109481038006840F480507A
:102AC000064910390860FEF759FA054608E0FEF796
:102AD00055FA401B022803D9032029E61044025866
:102AE000AF480068C0F340300028F0D016E0AC4892
:102AF000006820F48050AA490860FEF73FFA0546B6
:102B000006E0FEF73BFA401B022801D903200FE63E
:102B1000A3480068C0F340300028F2D1207800F0CC
:102B2000040004287DD19F48006840F480709D49CE
:102B30000860FEF723FA054606E0FEF71FFA401B81
:102B4000642801D90320F3E59648006800F48070FA
:102B50000028F2D000BFA068012808D1904870304A
:102B6000006840F001008E49703108602DE0A068D7
:102B700068B98B487030006820F0010088497031D6
:102B800008600846006820F0040008601DE0A068A6
:102B900005280DD182487030006840F0040080495B
:102BA000703108600846006840F0010008600CE0E1
:102BB0007B487030006820F001007949703108606E
:102BC0000846006820F00400086000BFA068A0B1BB
:102BD000FEF7D4F9054608E0FEF7D0F9401B41F2B4
:102BE0008831884201D90320A2E56D487030006821
:102BF000C0F340000028EFD013E0FEF7BFF9054610
:102C000008E0FEF7BBF9401B41F28831884201D948
:102C100003208DE5624870300068C0F34000002852
:102C2000EFD1606A00287CD05D481030006800F069
:102C30003800182876D0606A022874D15848006895
:102C400020F0807056490860FEF798F9054606E0C6
:102C5000FEF794F9401B022801D9032068E550488B
:102C60000068C0F340600028F2D100BFD4E90A1028
:102C700041EA00104A492831096840F2F332914391
:102C80000843474928310860208E401EC0F30800E1
:102C9000616B491E4FF47E4202EA41210843218FB5
:102CA000491ED20102EA014108433C21095D491E47
:102CB000120202EA0161084339493031086000BF5D
:102CC000081D00684FF6F87188434FF6F87292FAC3
:102CD000A2F2B2FA82F2A16C914008433049343139
:102CE00008602F482C30006820F00C00216C08434D
:102CF0002B492C3108600846006820F00200616C06
:102D0000084327492C3108600846006840F48030A9
:102D100008600846006840F4003008600846006813
:102D200002E03BE038E01FE040F480200860084605
:102D3000006840F0010008601948006840F08070A9
:102D400017490860FEF71AF9054606E0FEF716F97E
:102D5000401B022801D90320EAE411480068C0F3AF
:102D600040600028F2D019E00D48006820F0807023
:102D70000B490860FEF702F9054606E0FEF7FEF88B
:102D8000401B022801D90320D2E405480068C0F3A3
:102D900040600028F2D101E00120C9E40020C7E42E
:102DA0000044025800480258704770477047704707
:102DB00010B50446FDF76FFD10BD000070B5044668
:102DC000E56A2068406BC0F3002000286ED04FF405
:102DD0008070216888632068C06B4CF23A11884388
:102DE0002168C8632068C06B20F080502168C863E8
:102DF0002068C06820F040002168C86005F0080025
:102E000020B305F0020010B905F0200050B1206891
:102E100001F036FD06462EB1606B304360632046FC
:102E2000FFF7C6FF794821688863012084F83000E5
:102E300005F0010010B905F0020018B1204600F0BD
:102E4000E7F8E2E0204600F0E8F8DEE005F0800078
:102E50000028F6D00020216888622168C8622168B5
:102E6000086505F0010050B9206801F009FD06462B
:102E70002EB1606B304360632046FFF799FF01205D
:102E800084F8300005F0100010B905F0200010B1F2
:102E9000204600F0C2F805F0010018B905F0020064
:102EA0000028CED0204600F0B3F8AEE02068406B9A
:102EB000C0F3803018B1204601F025FEA5E020685F
:102EC000406BC0F3C03018B1204601F001FE9CE019
:102ED0002068406B00F03A0008B1012000E00020BB
:102EE00000286DD02068406BC0F3400018B1606BC3
:102EF00040F0020060632068406BC0F3C00018B16E
:102F0000606B40F0080060632068406BC0F34010C5
:102F100018B1606B40F0200060632068406BC0F324
:102F2000001018B1606B40F01000606337482168F2
:102F300088632068C06B20F49D702168C863206896
:102F4000C06820F040002168C8602068C06A40F472
:102F500000502168C8622068C06840F08000216885
:102F6000C860206801F08CFC616B084360632068D6
:102F7000C06820F080002168C8604FF400602168BC
:102F8000886305F0080030B1012084F83000204645
:102F9000FFF70EFF39E005F0800070B3606B60B39F
:102FA0002068C06B20F080502168C8630020216831
:102FB0000865012084F830002046FFF7F9FE24E080
:102FC0002068406BC0F30070B8B12068006D00F05D
:102FD000040058B9E06A00F0200018B12046FFF75D
:102FE000E6FE0EE02046FFF7E0FE0AE005F02000D6
:102FF00020B12046FFF7DAFE03E006E02046FFF7A7
:10300000D3FE4FF080502168886370BD3A0F0018DE
:1030100010B50446FDF740FC10BD10B50446FDF7A1
:1030200041FC10BD70B50446002500260CB90120F6
:1030300070BD606A00B900BFA06AB0F5800F00D112
:1030400000BF8E49206888420CD08D492068884294
:1030500008D08C492068884204D0E0680F2801D944
:103060000120E5E7204601F0EFFD06468349206890
:10307000884209D082492068884205D08149206869
:10308000884201D0082E0DD87C492068884207D09C
:103090007B492068884203D07A492068884203D15E
:1030A000102E01D90120C3E7A06AB0F5800F1DD111
:1030B0007249206888420DD071492068884209D041
:1030C00070492068884205D0206BB0F5702F01D977
:1030D0000120ADE7206B10B9A089050400E0256B45
:1030E000E068B0EB154F01D90120A1E794F8810009
:1030F00028B9002084F88000204600F0C5F802209E
:1031000084F881002068006820F0010021680860D0
:10311000A069B0F1806F0BD16068B0F5800F07D166
:10312000A06B28B92068006840F4805021680860CE
:10313000A16AE06908432843E16B0843E16808435A
:1031400021688860616A606B0843A16B0843A169CC
:1031500008432169084361690843216A084361689B
:103160000843E16C0843A1680843A16C0843A16DC2
:1031700008432168C860A06AB0F5800F4DD1206C6B
:10318000012806D12068006840F4004021680860EA
:1031900005E02068006820F4004021680860606C49
:1031A000012806D12068006840F48040216808604A
:1031B00005E02068006820F48040216808602F49FD
:1031C000206888420AD02E492068884206D02D49BE
:1031D0002068884202D0B5F5702F0ED027492068AC
:1031E000884207D026492068884203D025492068B4
:1031F000884209D1B5F5F81F06D12068006840F46F
:1032000000502168086005E02068006820F4005044
:10321000216808602168E06A0864606888B9A06A6B
:1032200038B92068806820F4C05040F400602168FC
:1032300088602068806820F4C06040F48060216865
:1032400088602068006D20F00100216808656068D2
:1032500000F48000B0F5800F07D12068C06820F02E
:103260000040616D08432168C8600020C4F88400F4
:10327000012084F881000020DAE6000000300140DF
:1032800000380040003C004010B586B0044600BF46
:103290002A48006840F00200284908600846006893
:1032A00000F00200009000BF00BF00BF08460068A9
:1032B00040F0020008600846006800F0020000903C
:1032C00000BF00BF00BF0846006840F00200086071
:1032D0000846006800F00200009000BF00BF00BF79
:1032E00016481030006840F48050144910310860CE
:1032F0000846006800F48050009000BF00BF08201E
:103300000190022002900390012004900520059076
:1033100001A90B48FDF706FD10200190052005903E
:1033200001A90748FDF7FEFC20200190052005902B
:1033300001A90348FDF7F6FC06B010BDE0440258B1
:10334000000402582DE9F84304460F4616461D4670
:103350004FF00008C1466068B0F5800F0DD1A0683D
:1033600058B9042084F8810033463A46394620464D
:10337000009500F0B0FABDE8F88300BF94F8800033
:10338000012801D10220F6E7012084F8800000BF67
:10339000FDF7F4FD804694F88100012808D04FF035
:1033A000020900BF002084F8800000BF4846E2E721
:1033B00007B146B94FF0010900BF002084F8800032
:1033C00000BF4846D7E704205C3484F8250000207D
:1033D000A062A760A681E6812060A080E080606195
:1033E000A0615C3CA068B0F5C02F05D120680068E2
:1033F00020F4006021680860206840686FF30F00C7
:103400003043216848602068006840F0010021686E
:1034100008606068B0F5800F05D12068006840F44E
:10342000007021680860E0680F2833D92DE020681B
:10343000406948F20801084060B12068006B616E85
:103440000860606E001D6066B4F86A00401EA4F853
:103450006A001AE03DB1681CB8B1FDF78FFDA0EB22
:103460000800A84211D3204601F070FB00BF0020E5
:1034700084F8800000BFD4F8840040F48070C4F861
:103480008400012084F8810075E7B4F86A00002800
:10349000CDD1A1E0E068072844D93EE0206840692A
:1034A00000F46040F0B12068406900F4004060B171
:1034B0002068006B616E0860606E001D6066B4F885
:1034C0006A00801EA4F86A0027E02068008E616E02
:1034D0000880606E801C6066B4F86A00401EA4F824
:1034E0006A001AE03DB1681CB8B1FDF747FDA0EBDA
:1034F0000800A84211D3204601F028FB00BF00209D
:1035000084F8800000BFD4F8840040F48070C4F8D0
:103510008400012084F881002DE7B4F86A000028B7
:10352000BCD159E054E02068406900F4604098B391
:103530002068406900F4004060B12068006B616E53
:103540000860606E001D6066B4F86A00001FA4F891
:103550006A003DE02068406900F4C040B0F5005FBB
:103560000CD92068008E616E0880606E801C6066D9
:10357000B4F86A00801EA4F86A0029E0206890F878
:103580003000616E0870606E401C6066B4F86A00BE
:10359000401EA4F86A001BE0FFE73DB1681CB8B10B
:1035A000FDF7ECFCA0EB0800A84211D3204601F087
:1035B000CDFA00BF002084F8800000BFD4F884005A
:1035C00040F48070C4F88400012084F88100D2E6C1
:1035D000B4F86A000028A6D1A06AB0F5800F0DD11A
:1035E0004346002208212046009501F03AFB28B10D
:1035F000D4F8840040F02000C4F88400204601F094
:10360000A5FA00BF002084F8800000BF012084F8E4
:103610008100D4F8840008B10120ACE60020AAE6BD
:103620002DE9F8430446884616461D460027B9464C
:1036300000BF94F88000012802D10220BDE8F88381
:10364000012084F8800000BFFDF798FC074694F83D
:103650008100012808D04FF0020900BF002084F843
:10366000800000BF4846E9E7B8F1000F00D046B936
:103670004FF0010900BF002084F8800000BF4846D9
:10368000DCE703205C3484F825000020A062C4F845
:103690000080A680E680A060A081E081A0616061DA
:1036A0005C3CA068B0F5C02F05D12068006840F4EC
:1036B000006021680860206840686FF30F003043A5
:1036C000216848602068006840F0010021680860B7
:1036D0006068B0F5800F05D12068006840F4007084
:1036E00021680860E0680F2832D92CE02068406922
:1036F00000F0020002280CD1E06D00682168086229
:10370000E06D001DE065B4F86200401EA4F86200A0
:1037100019E035B1681CB0B1FDF730FCC01BA84200
:1037200011D3204601F012FA00BF002084F8800077
:1037300000BFD4F8840040F48070C4F884000120F5
:1037400084F881007AE7B4F862000028CED1A2E0C4
:10375000E068072845D93FE02068406900F0020092
:1037600002281FD1B4F8620001280ED9E06B60B1C5
:10377000E06D006821680862E06D001DE065B4F846
:103780006200801EA4F8620026E0E06D00882168D7
:103790000884E06D801CE065B4F86200401EA4F867
:1037A000620019E035B1681CB0B1FDF7E7FBC01B42
:1037B000A84211D3204601F0C9F900BF002084F8C7
:1037C000800000BFD4F8840040F48070C4F8840006
:1037D000012084F8810031E7B4F862000028BBD1F1
:1037E00059E054E02068406900F00200022834D11A
:1037F000B4F8620003280FD9E06B40280CD9E06DC3
:10380000006821680862E06D001DE065B4F86200A0
:10381000001FA4F862003AE0B4F8620001280ED953
:10382000E06B60B1E06D008821680884E06D801C69
:10383000E065B4F86200801EA4F8620027E0E06D45
:103840000078216881F82000E06D401CE065B4F844
:103850006200401EA4F8620019E035B1681CB0B1E6
:10386000FDF78CFBC01BA84211D3204601F06EF976
:1038700000BF002084F8800000BFD4F8840040F42A
:103880008070C4F88400012084F88100D6E6B4F882
:1038900062000028A6D13B46002208212046009560
:1038A00001F0DFF928B1D4F8840040F02000C4F81A
:1038B0008400204601F04AF900BF002084F880000F
:1038C00000BF012084F88100D4F8840008B10120F1
:1038D000B4E60020B2E62DE9F84F0446884691464A
:1038E0001D460A9E0027BA4600BF94F880000128B2
:1038F00002D10220BDE8F88F012084F8800000BFCB
:10390000FDF73CFB074694F88100012812D060685F
:10391000B0F5800F05D1A06818B994F8810004288B
:1039200008D04FF0020A00BF002084F8800000BFDA
:103930005046DFE7B8F1000F03D0B9F1000F00D017
:1039400045B94FF0010A00BF002084F8800000BF95
:103950005046CFE794F88100042802D0052084F86F
:1039600081000020C4F88400C4F86490A4F86A5070
:10397000A4F86850C4F85C80A4F86250A4F86050C1
:1039800020676067206840686FF30F002843216854
:1039900048602068006840F00100216808606068A5
:1039A000B0F5800F05D12068006840F400702168F0
:1039B0000860E0680F284CD942E0B4F8620088B192
:1039C0002068406900F0020002280BD1E06D006819
:1039D00021680862E06D001DE065B4F86200401ED9
:1039E000A4F86200B4F86A0088B12068406948F21F
:1039F0000801084058B12068006B616E0860606E75
:103A0000001D6066B4F86A00401EA4F86A00701CCD
:103A1000B0B1FDF7B3FAC01BB04211D3204601F09C
:103A200095F800BF002084F8800000BFD4F884001F
:103A300040F48070C4F88400012084F8810059E7C4
:103A4000B4F862000028B8D1B4F86A000028B4D1F4
:103A50000FE1E068072871D966E0B4F8620020B38E
:103A60002068406900F0020002281ED1B4F862000C
:103A700001280ED9E06B60B1E06D00682168086232
:103A8000E06D001DE065B4F86200801EA4F86200DD
:103A90000BE0E06D008821680884E06D801CE06523
:103AA000B4F86200401EA4F86200B4F86A0010B3D3
:103AB0002068406900F46040E8B12068406900F483
:103AC000004060B12068006B616E0860606E001D90
:103AD0006066B4F86A00801EA4F86A000BE02068F3
:103AE000008E616E0880606E801C6066B4F86A00AB
:103AF000401EA4F86A00701CB0B1FDF73FFAC01B6D
:103B0000B04211D3204601F021F800BF002084F814
:103B1000800000BFD4F8840040F48070C4F88400B2
:103B2000012084F88100E5E6B4F86200002894D111
:103B3000B4F86A00002890D19BE0FFE790E0B4F869
:103B4000620058B32068406900F00200022833D1B7
:103B5000B4F8620003280FD9E06B40280CD9E06D5F
:103B6000006821680862E06D001DE065B4F862003D
:103B7000001FA4F862001FE0B4F8620001280ED90B
:103B8000E06B60B1E06D008821680884E06D801C06
:103B9000E065B4F86200801EA4F862000CE0E06DFD
:103BA0000078216881F82000E06D401CE065B4F8E1
:103BB0006200401EA4F86200B4F86A0048B32068AE
:103BC000406900F4604020B32068406900F4004080
:103BD00060B12068006B616E0860606E001D6066F9
:103BE000B4F86A00001FA4F86A0020E02068406969
:103BF00000F4C040B0F5005F0CD92068008E616E03
:103C00000880606E801C6066B4F86A00801EA4F8AC
:103C10006A000CE0206890F83000616E0870606EF9
:103C2000401C6066B4F86A00401EA4F86A00701C6C
:103C3000B0B1FDF7A3F9C01BB04211D3204600F08C
:103C400085FF00BF002084F8800000BFD4F8840006
:103C500040F48070C4F88400012084F8810049E6B3
:103C6000B4F8620000287FF46AAFB4F86A00002854
:103C7000F9D13B46002208212046009600F0F1FFD2
:103C800028B1D4F8840040F02000C4F88400204615
:103C900000F05CFF00BF002084F8800000BF01201E
:103CA00084F88100D4F8840008B1012022E60020C5
:103CB00020E6000070B504460E4615460CB90120FA
:103CC00070BD94F8450028B9002084F844002046CF
:103CD00000F024F804F108012068FCF7A9FF314640
:103CE000A2682068FCF7E4FF2946E36AD4E90102F0
:103CF000FCF77AFFA168206850F8210040F001002D
:103D0000A268216841F822000348006840F00040A2
:103D1000014908600020D3E700400052704770B5A9
:103D200004462546681EB0F1807F01D301200FE0D4
:103D3000681E4FF0E02148610F214FF0FF3002F084
:103D4000B7F800204FF0E0218861072008610020CB
:103D500070BD10B504460CB9012010BD94F83D00AB
:103D600028B9002084F83C00204600F00CF802201E
:103D700084F83D00211D206801F010F9012084F82D
:103D80003D000020E9E770470146022081F83D0030
:103D90000868008840F001000A681080012081F85E
:103DA0003D000020704710B504460CB9012010BD3D
:103DB000A06900B100E000BF94F8790028B90020A4
:103DC00084F87800204600F02AF8242084F879004E
:103DD0002068006820F0010021680860204601F09A
:103DE000F3F9012800D1E2E7606B10B1204601F041
:103DF0003BF92068406820F49040216848602068C2
:103E0000806820F02A00216888602068006840F0FF
:103E1000010021680860204601F09BF9C7E7704760
:103E200000B59BB04C2108A8FCF79CFA1C2101A806
:103E3000FCF798FA18480890184809900520019056
:103E40000220029003900120049002200590069029
:103E5000002007900A9000210B910C9120210D91D8
:103E600000210E910F9110914FF48051119100217A
:103E700012911391149115911691179101AA01A90C
:103E800008A8FFF717FF20B14FF4927104A0FCF7C8
:103E9000A7FE1BB000BD00000040005204410052CC
:103EA0002E2E5C2E2E5C557365725C6273705C7393
:103EB00072635C6273705F666D635F696F2E63002F
:103EC00000B587B000BF3E48006840F008003C499C
:103ED00008600846006800F00800019000BF00BFBD
:103EE00000BF0846006840F01000086008460068FF
:103EF00000F01000019000BF00BF00BF084600683E
:103F000040F0400008600846006800F04000019062
:103F100000BF00BF00BF0846006840F08000086096
:103F20000846006800F08000019000BF00BF00BF9D
:103F30000846006840F4807008600846006800F495
:103F40008070019000BF00BF00BF1D480C380068A2
:103F500040F480501A490C3908600846006800F4A3
:103F60008050019000BF00BF022003900120049008
:103F7000032005900C2006904CF2B370029002A929
:103F80001048FCF7CFFE4FF68070029002A90E4851
:103F9000FCF7C8FE0320029002A90C48FCF7C2FE01
:103FA0004FF47F40029002A90948FCF7BBFE40F2A3
:103FB000CF60029002A90748FCF7B4FE07B000BD2D
:103FC000E0440258000C0258001002580018025831
:103FD000001C0258002002580146044800680840AE
:103FE00008B1012070470020FCE7000020000020FD
:103FF00029B9084A12688243064B1A6004E0054A50
:1040000012680243034B1A60024A1268024B1A609C
:1040100070470000200000200010006010B53249F9
:10402000096801F0004149B12F49096841F0004198
:104030002D4A11608169891C816110BD2A490839A6
:1040400009682A4A11622849091F097882F8241050
:104050002549C91E0978916223490C310968D1624A
:104060002149891E098811861F49096851631E4923
:10407000091D096891631C4910310968D1631CA2AC
:1040800000210BE0535C254C238500BF234BDB69EB
:1040900003F04003002BF9D04B1CD9B22929F1D3EE
:1040A00000211F4A116000BF1D4909680029FBD08B
:1040B0000E4A016811604168516081689160C16871
:1040C000D160016911614169516181699161C16981
:1040D000D1610021124A116000BF1149096800290D
:1040E000FBD000BFA9E700002CED00E0845A0020BF
:1040F0000D0A456E74657220486172644661756C84
:10410000745F48616E646C65722C205379737465BA
:104110006D2048616C742E0D0A00000000100140F3
:10412000D000002000B5B5B00120019000201F9004
:1041300001A8FDF7A9FA00BF6548006840F001003A
:10414000634908600846006800F00100009000BF65
:1041500000BF00BF0846006840F001000860084644
:10416000006800F00100009000BF00BF00BF584889
:104170001030006840F010005549103108600846C2
:10418000006800F01000009000BF00BF4FF4007006
:10419000309002203190012032900320339007208C
:1041A000349030A94B48FCF7BDFD4FF4806030904F
:1041B0000720349030A94748FCF7B4FD01220021C4
:1041C0002520FCF7B2FF2520FCF79FFF0C230022DF
:1041D0004FF4E131404802F02FFF3F48006A40F0C1
:1041E00040003D4908620846008B40F00800088303
:1041F0000846006840F02000086000BF34480068AE
:1042000040F00200324908600846006800F00200F1
:10421000009000BF00BF00BF0846006840F00200E9
:1042200008600846006800F00200009000BF00BF70
:1042300000BF27480830006840F480202449083136
:1042400008600846006800F48020009000BF00BFAE
:104250004FF4806030900220319001203290032092
:1042600033900720349030A91C48FCF75BFD4FF4D5
:10427000006030900720349030A91848FCF752FDB8
:10428000032200212720FCF750FF2720FCF73DFFE9
:104290000C2300224FF41651114802F0CDFE1048B5
:1042A0002030006840F040000D49203108600C4883
:1042B0001830008840F00800094918310880084883
:1042C000006840F020000649086035B000BD0000DD
:1042D000E044025800000258001001400004025857
:1042E000004800402DE9F0410446082C17DA00266A
:1042F000FF27002508E0284600F030F810B1701CB8
:10430000C6B22F46681CC5B2082DF4DB012E04D1BD
:10431000A74202D10120BDE8F0810020FBE7082C74
:104320000BD1002000F01AF828B1012000F016F897
:1043300008B10120EFE70020EDE7092C0BD10120A7
:1043400000F00CF828B1022000F008F808B10120B4
:10435000E1E70020DFE70020DDE7000001460B4831
:1043600050F831000069094B03EBC1039B881840EA
:1043700008B9002200E00122044800EBC100807966
:10438000904201D1012070470020FCE73CA40008C6
:1043900010B50848006800F0010048B10120054947
:1043A000091D08600448FCF72FFE042002F0F9FD07
:1043B00010BD000000240040982600201FB5FCF727
:1043C0006DFE01208DF800004FF01050019012207A
:1043D0008DF8080003208DF80B0000208DF80F00E9
:1043E00001208DF80E0000208DF80D008DF80100E1
:1043F0008DF80A008DF809008DF80C006846FCF76E
:104400001FFE01208DF800004FF0C04001900F20EA
:104410008DF8080003208DF80B0001208DF80F00A7
:1044200000208DF80E008DF80D0001208DF80100A0
:1044300000208DF80A008DF809008DF80C00684600
:10444000FCF7FEFD01208DF800004FF06050019058
:104450000F208DF8080003208DF80B0000208DF848
:104460000F0001208DF80E0000208DF80D000220B5
:104470008DF8010000208DF80A008DF809008DF8F4
:104480000C006846FCF7DCFD0420FCF71DFE1FBD98
:1044900000BFFEE7704770472DE9F04104460E4625
:1044A00000274848006800F00300032802D10120DB
:1044B000BDE8F08143482838006820F08060414919
:1044C00028390860FCF75AFD054606E0FCF756FD62
:1044D000401B022801D90320EAE73A48283800683F
:1044E000C0F3C0600028F1D100BF3648006820F456
:1044F0007C30216840EA013032490860A088401EC3
:10450000C0F30800A168491E4FF47E4202EA41212F
:104510000843A189491ED20102EA01410843217CD6
:10452000491E120202EA016108432649103108605F
:1045300000BF2448001D006820F0C00061690843E6
:104540002049091D08600846006820F02000A16984
:1045500008431C49091D08602EB90846006840F44C
:104560000020086012E0012E08D11648001D0068E6
:1045700040F480101349091D086007E01148001D30
:10458000006840F400100F49091D08600D482838E4
:10459000006840F080600B4928390860FCF7EEFCA9
:1045A000054606E0FCF7EAFC401B022801D903207F
:1045B0007EE7044828380068C0F3C0600028F1D0C6
:1045C000384675E7284402582DE9F04104460E4666
:1045D00000274848006800F00300032802D10120AA
:1045E000BDE8F08143482838006820F080504149F8
:1045F00028390860FCF7C2FC054606E0FCF7BEFC63
:10460000401B022801D90320EAE73A48283800680D
:10461000C0F340700028F1D100BF3648006820F098
:104620007C70218840EA015032490860A088401E11
:10463000C0F30800A168491E4FF47E4202EA4121FE
:104640000843A189491ED20102EA01410843217CA5
:10465000491E120202EA0161084326491831086026
:1046600000BF2448001D006820F4406061690843D1
:104670002049091D08600846006820F40070A169FF
:1046800008431C49091D08602EB90846006840F41B
:104690008000086012E0012E08D11648001D006855
:1046A00040F400001349091D086007E01148001D8F
:1046B000006840F080700F49091D08600D482838D7
:1046C000006840F080500B4928390860FCF756FC20
:1046D000054606E0FCF752FC401B022801D90320E6
:1046E0007EE7044828380068C0F340700028F1D005
:1046F000384675E72844025800B587B000BF0D481A
:10470000006840F002000B4908600846006800F0AD
:104710000200019000BF00BF012003900020049020
:10472000032005900420029002A90348FCF7FAFA3E
:1047300007B000BDE0440258000402587047000072
:1047400004200149088070471804025804200149D8
:10475000088070471A04025810B50023234C2360C8
:1047600000BF00BF00BFBFF34F8F00BF00BF00BF3F
:10477000231F1868C0F34E3100BFC0F3C90200BF49
:1047800043F6E07303EA41134FF0404404EA8274B5
:104790002343174C236000BF00BF131EA2F1010288
:1047A000EED10B1EA1F10101E7D100BF00BF00BF98
:1047B000BFF34F8F00BF00BF00BF0C4B703B1B68A7
:1047C00043F48033094C703C236000BF00BF00BF3E
:1047D000BFF34F8F00BF00BF00BF00BF00BF00BFCF
:1047E000BFF36F8F00BF00BF00BF10BD84ED00E0BE
:1047F00060EF00E000BF00BF00BFBFF34F8F00BFFE
:1048000000BF00BF00BF00BF00BFBFF36F8F00BF7E
:1048100000BF00BF00201449086000BF00BF00BFF8
:10482000BFF34F8F00BF00BF00BF00BF00BF00BF7E
:10483000BFF36F8F00BF00BF00BF0C48006840F49B
:1048400000300A49086000BF00BF00BFBFF34F8FB0
:1048500000BF00BF00BF00BF00BF00BFBFF36F8F2E
:1048600000BF00BF00BF704750EF00E014ED00E054
:1048700010B50248FEF7A2FA10BD0000C4150020D2
:1048800030B585B00446002000900C2001904FF414
:1048900080700290002003904FF480500490E068F4
:1048A00040F08000E060E06820F04000E060694691
:1048B000204600F0F1F8064A0C21204600F00AF8E4
:1048C0000546E06820F08000E060284605B030BD75
:1048D00000E1F5052DE9F04105460E46174664480E
:1048E0000068C0084FF47A71B0FBF1F000FB07F8E4
:1048F00000BFB8F10000A8F1010803D14FF000405B
:10490000BDE8F081686B5B4908400028F1D0686B16
:1049100000F0040010B10420A863F1E7686B00F018
:10492000010010B10120A863EAE752488030A86373
:10493000284600F0A3F8B04201D00120E0E70021B2
:10494000284600F09FF804464B48204008B9002054
:10495000D6E704F00040B0F1004F02D14FF00070F4
:10496000CEE704F08040B0F1804F01D14020C7E78E
:1049700004F00050B0F1005F01D18020C0E704F0E6
:104980008050B0F1805F02D14FF48070B8E704F03E
:104990000060B0F1006F02D14FF40070B0E704F096
:1049A0008060B0F1806F02D14FF48060A8E704F01E
:1049B0008070B0F1807F02D14FF40060A0E704F472
:1049C0000000B0F5000F02D14FF4805098E704F4D6
:1049D0008000B0F5800F02D14FF4005090E704F44E
:1049E0000010B0F5001F02D14FF4804088E704F4B6
:1049F0008010B0F5801F02D14FF4004080E704F42E
:104A00008020B0F5802F02D14FF4003078E704F415
:104A10000030B0F5003F02D14FF4802070E704F47D
:104A20008030B0F5803F02D14FF4002068E704F4F5
:104A30000040B0F5004F02D14FF4801060E704F45D
:104A40008040B0F5804F02D14FF4001058E704F4D5
:104A50000050B0F5005F02D14FF4800050E704F041
:104A60000800082801D100054AE74FF4803047E7E5
:104A7000C80000204500200008E0FFFD014608694D
:104A8000C0B27047024602F114004318186870471C
:104A90000146D1F88000704710B50246002308682F
:104AA0009060D1E901042043CC6820430C69204385
:104AB0000343D068024C20401843D060002010BD52
:104AC000C0E0FEFF02460868C2F880000020704780
:104AD0002DE9F0410646746A00270FE03068FFF7C1
:104AE000D7FF05462570641C280A2070641C280C1A
:104AF0002070641C280E2070641C7F1C082FEDD3CE
:104B00007462BDE8F081F8B50546EC69002619E04D
:104B100020780090641C2078009941EA00200090E1
:104B2000641C2078009941EA00400090641C2078C1
:104B3000009941EA00600090641C69462868FFF70C
:104B4000C1FF761C082EE3D3EC61F8BD0268516901
:104B50000268926942F0080203689A6102689269E9
:104B600042F0100203689A610268126822F00102A2
:104B700003681A600268126940F26B339A43036853
:104B80001A610268926822F4404203689A6090F8C1
:104B90008120042A0ED001F020025AB1D0F88420DE
:104BA00042F08002C0F884200268926942F020023C
:104BB00003689A6190F88120032A21D001F0400215
:104BC0005AB1D0F8842042F00402C0F88420026870
:104BD000926942F0400203689A61826AB2F5800FDE
:104BE0000ED101F080025AB1D0F8842042F00202C6
:104BF000C0F884200268926942F0800203689A61DA
:104C000001F400725AB1D0F8842042F00102C0F8D9
:104C100084200268926942F4007203689A6101F488
:104C200080725AB1D0F8842042F00802C0F8842083
:104C30000268926942F4807203689A610022A0F8C7
:104C40006220A0F86A20704710B501460124C86BA5
:104C500004EB5013C868421CD01DC20802FB03F0CD
:104C600010BD2DE9F04106460C4617469846069DB4
:104C70000BE0681C48B12DB1FCF780F9A0EB0800EF
:104C8000A84202D90320BDE8F08130684069204085
:104C9000A04201D1012000E00020B842E9D000206C
:104CA000F1E7704710B5FCF76FF90448007800B9D8
:104CB00010BD00F005F800BFFAE700001C0000205E
:104CC00010B51B48006840B119480068401E1849DB
:104CD000086010B9012017490870002408E004EBAF
:104CE0004401154A02EB810002F0DAF9601CC4B2FB
:104CF000042CF4DB11480068401C10490860084689
:104D000000686FF00041884202D100200B49086022
:104D100002F07EF90A480078401CC0B208490870C9
:104D20000A2803DB0020087002F06EF910BD0000B5
:104D3000100000201400002094150020180000200E
:104D40001D00002010B59CB000243A48006820F0F7
:104D500004003849086000BF0020009035480C303E
:104D6000006840F4404033490C3108600846006850
:104D700000F44040009000BF00BF00BF2D480C3041
:104D8000006800F40050B0F5005FF7D101200190F9
:104D90000004029000200490089002200A90022152
:104DA0000B9105210C91A0210D9102210E911091E2
:104DB00004210F91002112910821119101A8FDF702
:104DC00091FC04461CB190211BA0FBF709FF3F207A
:104DD0001490032015900020169008201790402072
:104DE0001890199000011A9040201B90042114A8DB
:104DF000FDF7E6F904461CB1AB210FA0FBF7F0FE6E
:104E00001348006840F080001149086000BF104856
:104E1000F430006840F002000D49F43108600846A3
:104E2000006800F00200009000BF00BFFBF770FFB9
:104E30001CB010BD0C4802582E2E5C2E2E5C5573F3
:104E400065725C6273705C6273702E6300000000B8
:104E5000004402582048006840F470001E49086071
:104E60001E48006840F001001C49086000201B49F2
:104E7000103108601948006819490840174908604E
:104E80000020164918310860091D0860091D0860D6
:104E9000124928310860091D0860091D0860091DB4
:104EA0000860091D0860091D0860091D0860091DCA
:104EB00008600A48006820F4802008490860002043
:104EC000064960310860012006490860C0060249B1
:104ED000803908607047000088ED00E00044025807
:104EE0007FEDF6EA0881005170B5002500264FF0ED
:104EF0008044206900F00205E06800F002065DB120
:104F000056B14FF6FD702061E0684FF6FD71084024
:104F1000E0601E4800688047206900F00405E068F2
:104F200000F004065DB156B14FF6FB702061E068F9
:104F30004FF6FB710840E060154800688047206923
:104F400000F00805E06800F008065DB156B14FF6C4
:104F5000F7702061E0684FF6F7710840E0600D4897
:104F600000688047206900F01005E06800F0100636
:104F70005DB156B14FF6EF702061E0684FF6EF710A
:104F80000840E06004480068804770BD00000020D1
:104F900004000020080000200C00002010B50022B2
:104FA0000288294B98420ED0B0F1804F0BD0274B8E
:104FB000984208D0264B984205D0264B984202D002
:104FC000254B984203D122F070024B681A431E4BC6
:104FD000984217D0B0F1804F14D01C4B984211D09A
:104FE0001B4B98420ED01B4B98420BD01A4B984249
:104FF00008D01A4B984205D0194B984202D0194B51
:10500000984203D122F44072CB681A4322F0800305
:105010004C6943EA040202808B68C3620B880385F3
:10502000094B98420BD00C4B984208D00B4B98423E
:1050300005D00B4B984202D00A4B984201D10B8A03
:1050400003860123436110BD0000014000040040BD
:1050500000080040000C00400004014000400140F6
:10506000004401400048014090F8341001F0010173
:1050700039B10168496821F40031826B114302683B
:10508000516090F8341001F0020139B101684968AB
:1050900021F48031C26B11430268516090F83410E2
:1050A00001F0040139B10168496821F48021026CE2
:1050B00011430268516090F8341001F0080139B1D1
:1050C0000168496821F40041426C11430268516053
:1050D00090F8341001F0100139B10168896821F4A9
:1050E0008051826C11430268916090F8341001F095
:1050F000200139B10168896821F40051C26C114363
:105100000268916090F8341001F0400199B1016893
:10511000496821F48011026D114302685160016DEC
:10512000B1F5801F07D10168496821F4C001426DC3
:1051300011430268516090F8341001F0800139B1D8
:105140000168496821F40021826D114302685160B1
:10515000704738B5044600250020E067FBF70EFFD6
:1051600005462068006800F0080008280CD16FF0A0
:105170007E402B4600224FF400110090204600F0A4
:10518000F5FC08B1032038BD2068006800F0040079
:1051900004280CD16FF07E402B4600224FF4800192
:1051A0000090204600F0E2FC08B10320EBE720204D
:1051B00084F8790084F87A0000BF002084F8780031
:1051C00000BF00BFDFE700002DE9F04F89B00446C3
:1051D00000254FF08008A946AA4600200890FA4909
:1051E0002068884201D1012000E0002000B100E0E9
:1051F00000BFA06AB0F1005F00D100BF2169A068C4
:10520000084361690843E16940EA0105A06A054372
:1052100020680068ED49084028432168086020683C
:10522000406820F44050E168084321684860A5695F
:10523000E5492068884201D1012000E0002008B93A
:10524000206A0543A06AB0F1005F03D1D4E90B01E5
:105250000843054320688068DD49084028432168E9
:1052600088602068C06A20F00F00616A08432168E6
:10527000C86200BFD7492068884224D1D648006858
:1052800000F03800182814D005DC48B108280AD0EE
:10529000102817D10AE020280ED0282812D10EE0BD
:1052A0004FF001080EE04FF004080BE04FF040080B
:1052B00008E04FF0080805E04FF0100802E04FF05A
:1052C000200800BF17E1C549206888421DD1C248A7
:1052D000006800F00700062816D2DFE800F0030699
:1052E000090C0F124FF000080EE04FF004080BE01D
:1052F0004FF0400808E04FF0080805E04FF01008B4
:1053000002E04FF0200800BFF5E0B5492068884270
:105310001DD1B148006800F00700062816D2DFE86A
:1053200000F00306090C0F124FF000080EE04FF0DA
:1053300004080BE04FF0400808E04FF0080805E0D3
:105340004FF0100802E04FF0200800BFD3E0A5495D
:10535000206888421DD1A048006800F00700062898
:1053600016D2DFE800F00306090C0F124FF0000818
:105370000EE04FF004080BE04FF0400808E04FF05B
:10538000080805E04FF0100802E04FF0200800BFC9
:10539000B1E09549206888421DD18F48006800F02F
:1053A0000700062816D2DFE800F00306090C0F12EA
:1053B0004FF000080EE04FF004080BE04FF04008FB
:1053C00008E04FF0080805E04FF0100802E04FF049
:1053D000200800BF8FE085492068884224D17E489C
:1053E000006800F03800182814D005DC48B10828FF
:1053F0000AD0102817D10AE020280ED0282812D170
:105400000EE04FF001080EE04FF004080BE04FF003
:10541000400808E04FF0080805E04FF0100802E0EF
:105420004FF0200800BF66E07149206888421DD116
:105430006948006800F00700062816D2DFE800F08F
:105440000306090C0F124FF000080EE04FF004089D
:105450000BE04FF0400808E04FF0080805E04FF07F
:10546000100802E04FF0200800BF44E061492068C6
:1054700088421DD15848006800F00700062816D25F
:10548000DFE800F00306090C0F124FF000080EE0F1
:105490004FF004080BE04FF0400808E04FF0080818
:1054A00005E04FF0100802E04FF0200800BF22E0B6
:1054B0004549206888421ED14748001D006800F019
:1054C0000700062816D2DFE800F00306090C0F12C9
:1054D0004FF002080EE04FF004080BE04FF04008D8
:1054E00008E04FF0080805E04FF0100802E04FF028
:1054F000200800BF00BF00BF33492068884201D1A7
:10550000012000E0002000285DD00025B8F1100F38
:1055100033D009DCB8F1020F10D0B8F1040F11D06C
:10552000B8F1080F2ED117E0B8F1200F27D0B8F14D
:10553000400F0CD0B8F1800F24D124E0FBF762FEBD
:10554000054623E005A8FBF773FE069D1EE002A8B2
:10555000FBF784FF039D19E01F4854380068C0F32F
:10556000401040B11C4854380068C0F3C1012248C3
:1055700020FA01F500E0204D08E0204D06E04FF450
:10558000004503E000BF0120089000BF00BF002DD0
:105590000AD0606800EB4000A84203D860680003AE
:1055A000A84202D201200890D4E2B8F1100F7CD0BA
:1055B00026DCB8F1020F2DD0B8F1040F52D0B8F1AB
:1055C000080F73D19EE03FE1000C0058F369FFCF54
:1055D000FFF4FF1100100140544402580044004001
:1055E00000480040004C00400050004000140140C2
:1055F00000780040007C00400090D00300093D008E
:10560000B8F1200F7DD0B8F1400F54D0B8F1800F21
:10561000D7D109E1FBF7F6FD00270646FB49606A92
:1056200031F810C062463B4630463946FAF750FE24
:105630004FF4807600220346A3FB060701FB0671A8
:1056400003FB021361684908064671185A41CDE907
:10565000001266683246002308460199FAF738FEC0
:105660000546E4E005A8FBF7E3FDDDF818C0E749CF
:10567000606A31F810B05A46002360461946FAF7BE
:1056800027FE4FF4807C0022A0FB0C3B01FB0CB1F9
:1056900000FB0210616849085E1840EB0201D4F873
:1056A00004C062460023304601E079E0BBE0FAF72F
:1056B0000FFE0546BBE002A8FBF7D0FEDDF80CC0EC
:1056C000D249606A31F810B05A4600236046194644
:1056D000FAF7FEFD4FF4807C0022A0FB0C3B01FB9F
:1056E0000CB100FB0210616849085E1840EB020132
:1056F000D4F804C0624600233046FAF7E9FD0546B7
:1057000095E06EE0C2480068C0F3401038B3C0486E
:105710000068C0F3C101BF4820FA01FCBB49606AC0
:1057200031F810B05A46002360461946FAF7D0FD0A
:105730004FF4807C0022A0FB0C3B01FB0CB100FB72
:105740000210616849085E1840EB0201D4F804C0F9
:10575000624600233046FAF7BBFD05461FE0AB4921
:10576000606A31F810C062460023AA481946FAF769
:10577000AFFD4FF4807C0022A0FB0C3B01FB0CB181
:1057800000FB0210616849085E1840EB0201D4F882
:1057900004C0624600233046FAF79AFD054646E00B
:1057A0009A49606A31F810C0624600239A48194647
:1057B000FAF78EFD4FF4807C0022A0FB0C3B01FB2E
:1057C0000CB100FB0210616849085E1840EB020151
:1057D000D4F804C0624600233046FAF779FD054646
:1057E00025E08A49606A31F810C0624600234FF410
:1057F00000401946FAF76CFD4FF4807C0022A0FBB4
:105800000C3B01FB0CB100FB0210616849085E18FB
:1058100040EB0201D4F804C0624600233046FAF798
:1058200057FD054603E000BF0120089000BF00BF00
:10583000B5F5407F05D3B5F5801F02D22068C5605D
:1058400088E10120089085E1E069B0F5004F7CD146
:10585000B8F1100F7AD00CDCB8F1000F13D0B8F10A
:10586000010F21D0B8F1040F2FD0B8F1080F6ED17D
:1058700051E0B8F1200F6BD0B8F1400F38D0B8F13B
:10588000800F64D197E0FCF7DFFD604A616A32F86F
:105890001110B0FBF1F04000616800EB5100B0FB6B
:1058A000F1F01FFA80FA89E0FCF7E4FD574A616ADB
:1058B00032F81110B0FBF1F04000616800EB5100CC
:1058C000B0FBF1F01FFA80FA78E005A8FBF7B0FC16
:1058D00006994E4A606A32F81000B1FBF0F04000C1
:1058E000616800EB5100B0FBF1F01FFA80FA65E04F
:1058F00002A8FBF7B3FD0399444A606A32F810002E
:10590000B1FBF0F04000616800EB5100B0FBF1F03A
:105910001FFA80FA52E03E480068C0F34010C0B160
:105920003B480068C0F3C1013A48C840374A616A41
:1059300032F81110B0FBF1F04000616800EB51004B
:10594000B0FBF1F01FFA80FA12E044E011E031E020
:105950001FE02E49606A31F810002E49B1FBF0F0CB
:105960004000616800EB5100B0FBF1F01FFA80FAD3
:1059700024E02649606A31F810002749B1FBF0F0B5
:105980004000616800EB5100B0FBF1F01FFA80FAB3
:1059900014E01E49606A31F810004FF40041B1FB79
:1059A000F0F04000616800EB5100B0FBF1F01FFA2D
:1059B00080FA03E000BF0120089000BF00BF4FF64F
:1059C000F0700AEA0009CAF3420049EA00092068B7
:1059D000C0F80C90BEE0B8F1100F7CD00CDCB8F130
:1059E000000F1BD0B8F1010F29D0B8F1040F37D048
:1059F000B8F1080F70D159E0B8F1200F6DD0B8F1AF
:105A0000400F40D0B8F1800F66D19FE05AA800083F
:105A1000004402580090D00300093D00FCF714FD3B
:105A20004E4A616A32F81110B0FBF1F0616800EB88
:105A30005100B0FBF1F080B22168C86089E0FCF74A
:105A400019FD464A616A32F81110B0FBF1F0616845
:105A500000EB5100B0FBF1F080B22168C86078E043
:105A600005A8FBF7E5FB06993C4A606A32F810008E
:105A7000B1FBF0F0616800EB5100B0FBF1F080B2D7
:105A80002168C86065E002A8FBF7E8FC0399334A87
:105A9000606A32F81000B1FBF0F0616800EB510071
:105AA000B0FBF1F080B22168C86052E02C48006879
:105AB000C0F34010C0B12A480068C0F3C1012948B2
:105AC000C840264A616A32F81110B0FBF1F06168F3
:105AD00000EB510002E017E037E025E0B0FBF1F009
