:020000040800F2
:10000000C0630020417D00088F2D0008ED7C0008B2
:10001000912D0008932D0008952D00080000000088
:10002000000000000000000000000000972D000804
:10003000992D0008000000009B2D0008A75A000819
:10004000A57D0008A97D0008AD7D0008B17D0008F0
:10005000B57D0008B97D0008BD7D0008C17D0008A0
:10006000C57D0008C97D0008CD7D0008D17D000850
:10007000D57D0008D97D0008DD7D0008E17D000800
:10008000E57D0008E97D0008ED7D0008F17D0008B0
:10009000F57D0008F97D0008FD7D0008017E00085F
:1000A000057E0008097E00080D7E0008117E00080C
:1000B0006F5B0008157E0008197E00081D7E000891
:1000C000217E0008257E0008297E00082D7E00087C
:1000D000317E00087B610008357E000885610008DC
:1000E000397E00083D7E000800000000417E0008C7
:1000F000457E0008497E00084D7E0008517E0008BC
:10010000557E00088D700008597E00085D7E00084D
:10011000617E0008657E0008697E00086D7E00082B
:10012000717E0008757E0008797E00087D7E0008DB
:10013000817E0008857E0008897E00088D7E00088B
:1001400000000000000000000000000000000000AF
:10015000917E0008957E0008997E00089D7E00082B
:10016000A17E0008A57E0008A97E0008AD7E0008DB
:10017000B17E0008B57E0008B97E000800000000CE
:10018000BD7E0008C17E0008C57E0008C97E00084B
:10019000CD7E0008D17E0008D57E0008D97E0008FB
:1001A000DD7E0008E17E0008E57E0008E97E0008AB
:1001B000ED7E000885780008F17E0008F57E0008D5
:1001C000F97E0008FD7E0008017F0008057F000819
:1001D000097F00080D7F0008117F0008157F0008C7
:1001E000197F00081D7F0008217F0008257F000877
:1001F000297F00082D7F0008317F0008357F000827
:10020000397F00083D7F0008417F0008457F0008D6
:10021000497F00084D7F0008517F0008557F000886
:10022000597F00085D7F0008617F00080000000022
:10023000657F0008697F0008000000006D7F0008EE
:10024000717F0008757F0008797F00087D7F0008B6
:10025000817F0008857F0008897F00088D7F000866
:10026000917F0008957F0008997F00089D7F000816
:10027000A17F0008A57F0008A97F000800000000FA
:10028000AD7F000800000000B17F00080000000002
:1002900000000000B57F00082DE9F04104000026B1
:1002A00000252068000130D5606E002809D0B0F527
:1002B000801F0DD0B0F5001F10D0B0F5401F14D036
:1002C00014E0DFF8D809016851F4003101600EE054
:1002D0000221201D00F00CFF060008E0022114F1AD
:1002E000240000F083FF060001E000E0012630005A
:1002F000C0B2002808D1DFF8A8190A6832F4401209
:10030000606E02430A6000E035432068C0052ED5C8
:10031000606D002806D0022811D00AD3042816D018
:1003200014D315E0DFF87409016851F4003101605D
:100330000FE00021201D00F0DBFE060009E0002197
:1003400014F1240000F052FF060002E001E000E09A
:1003500001263000C0B2002808D1DFF844190A682D
:10036000D208D200606D02430A6000E03543206885
:10037000800531D5A06D002809D040280ED08028F6
:1003800012D0C02817D0B0F5807F15D015E0DFF867
:100390000C09016851F4003101600FE00021201DBB
:1003A00000F0A6FE060009E0002114F1240000F090
:1003B0001DFF060002E001E000E001263000C0B2AF
:1003C000002808D1DFF8D8180A6832F4E072A06D6E
:1003D00002430A6000E035432068400536D5D4F872
:1003E000A40000280CD0B0F5001F10D0B0F5800F8D
:1003F00013D0B0F5C00F17D0B0F5000F15D015E031
:10040000DFF89808016851F4003101600FE0002125
:10041000201D00F06DFE060009E0002114F124000B
:1004200000F0E4FE060002E001E000E001263000FA
:10043000C0B2002809D1DFF86C180A6832F46002F3
:10044000D4F8A40002430A6000E0354320680005A8
:1004500036D5D4F8A80000280CD0B0F1807F10D099
:10046000B0F1007F13D0B0F1407F17D0B0F1806FB2
:1004700015D015E0DFF82408016851F4003101605F
:100480000FE00021201D00F033FE060009E00021EE
:1004900014F1240000F0AAFE060002E001E000E0F2
:1004A00001263000C0B2002809D1DFF8F8170A6829
:1004B00032F0E062D4F8A80002430A6000E035435D
:1004C0002068800127D5A06C002814D0102804D003
:1004D000202809D030280DD00EE0DFF8C0070168D1
:1004E00051F40031016008E00221201D00F000FEFF
:1004F000060002E001E000E001263000C0B2002862
:1005000008D1DFF8A4170A6832F03002A06C024369
:100510000A6000E035432068C00434D5E06D00284F
:100520000CD0B0F5805F10D0B0F5005F13D0B0F5FF
:10053000405F17D0B0F5804F15D015E0DFF85C07AD
:10054000016851F4003101600FE00021201D00F02E
:10055000CFFD060009E0002114F1240000F046FE62
:10056000060002E001E000E001263000C0B20028F1
:1005700008D1DFF82C170A6832F4E042E06D02433C
:100580000A6000E035432068800432D5206E0028E0
:100590000FD0B0F5803F0DD0B0F5003F10D0B0F5D2
:1005A000403F14D0B0F5802F12D0B0F5A02F10D05E
:1005B00010E010E00121201D00F09AFD06000AE085
:1005C000012114F1240000F011FE060003E002E016
:1005D00001E000E001263000C0B2002808D1DFF8B9
:1005E000C0160A6832F4E022206E02430A6000E07E
:1005F00035432068400434D5D4F8AC0000280FD02F
:10060000B0F1805F0DD0B0F1005F10D0B0F1405F6D
:1006100014D0B0F1804F12D0B0F1A04F10D010E044
:1006200010E00121201D00F063FD06000AE0012119
:1006300014F1240000F0DAFD060003E002E001E01E
:1006400000E001263000C0B2002809D1DFF85416BE
:100650000A6832F0E042D4F8AC0002430A6000E0DD
:1006600035432068000426D5E06E002813D0B0F191
:10067000805F03D0B0F1005F07D00DE0DFF81C060B
:10068000016851F40031016007E00121201D00F0F4
:100690002FFD060001E000E001263000C0B2002876
:1006A00008D1DFF8FC150A6832F04052E06E0243D0
:1006B0000A6000E035432068C00126D5606C002840
:1006C00013D002280AD002D303280DD00EE0DFF8A1
:1006D000CC05016851F40031016008E00221201DC1
:1006E00000F006FD060002E001E000E00126300017
:1006F000C0B2002808D1DFF8B0150A68920892004D
:10070000606C02430A6000E03543206840026DD50A
:10071000DFF8BC85D8F8000050F48070C8F80000FD
:1007200000F0F2FD0700D8F80000C00505D400F085
:10073000EBFDC01B6528F6D303263000C0B20028AD
:1007400053D1DFF89075386810F44070D4F8B010C9
:1007500011F4407188420BD0386830F44070396829
:1007600051F480313960396831F480313960386052
:10077000D4F8B000B0F5807F0ED100F0C5FD804602
:100780003868800708D400F0BFFDB0EB080041F2E4
:1007900089318842F4D303263000C0B2002822D128
:1007A000D4F8B00010F44070B0F5407F0DD1DFF800
:1007B0002805016831F47C51D4F8B020DFF81C35ED
:1007C00013EA12131943016005E0DFF80C05016814
:1007D00031F47C5101603868D4F8B0100905090D76
:1007E0000843386002E0354300E035432078C00715
:1007F0002DD5A06F00280AD0082809D010280DD0C8
:10080000182812D0202811D0282810D010E010E08D
:100810000121201D00F06CFC06000AE0012114F10A
:10082000240000F0E3FC060003E002E001E000E049
:1008300001263000C0B2002808D1DFF888160A6807
:1008400032F03802A06F02430A6000E0354320789E
:1008500080072BD5606F002808D002280DD006D362
:10086000042812D010D3052810D010E010E0012188
:10087000201D00F03DFC06000AE0012114F12400D7
:1008800000F0B4FC060003E002E001E000E0012615
:100890003000C0B2002808D1DFF828160A68D20854
:1008A000D200606F02430A6000E0354320784007C1
:1008B0002DD5D4F89000002808D002280DD006D3FA
:1008C000042812D010D3052810D010E010E0012128
:1008D000201D00F00DFC06000AE0012114F12400A7
:1008E00000F084FC060003E002E001E000E00126E5
:1008F0003000C0B2002809D1DFF8A8130A68D20876
:10090000D200D4F8900002430A6000E0354320781A
:10091000800634D5D4F88C0000280FD0B0F1805F69
:100920000DD0B0F1005F10D0B0F1405F14D0B0F145
:10093000804F12D0B0F1A04F10D010E010E0002195
:10094000201D00F0D5FB06000AE0022114F124006E
:1009500000F04CFC060003E002E001E000E00126AC
:100960003000C0B2002809D1DFF858150A6832F00B
:10097000E042D4F88C0002430A6000E0354320785E
:10098000400634D5D4F8980000280FD0B0F5806F19
:100990000DD0B0F5006F10D0B0F5406F14D0B0F5A9
:1009A000805F12D0B0F5A05F10D010E010E0002101
:1009B000201D00F09DFB06000AE0022114F1240036
:1009C00000F014FC060003E002E001E000E0012674
:1009D0003000C0B2002809D1DFF8C8120A6832F42A
:1009E000E052D4F8980002430A6000E035432078D2
:1009F000000634D5D4F89C0000280FD0B0F5005F75
:100A00000DD0B0F5804F10D0B0F5C04F14D0B0F578
:100A1000004F12D0B0F5204F10D010E010E00021B0
:100A2000201D00F065FB06000AE0022114F12400FD
:100A300000F0DCFB060003E002E001E000E001263C
:100A40003000C0B2002809D1DFF858120A6832F429
:100A50006042D4F89C0002430A6000E035432078ED
:100A6000000714D5D4F88000B0F5805F06D10221CC
:100A700014F1240000F0BAFB054308E0DFF8441449
:100A80000A6832F44052D4F8800002430A602078A9
:100A9000C00614D5D4F89400B0F5807F06D10221A9
:100AA00014F1240000F0A2FB054308E0DFF8F41184
:100AB0000A6832F44072D4F8940002430A60206855
:100AC000000328D5D4F8A000002806D0B0F5803F58
:100AD00009D0B0F5003F0DD00DE00021201D00F041
:100AE00007FB060008E0022114F1240000F07EFB61
:100AF000060001E000E001263000C0B2002809D164
:100B0000DFF8A0110A6832F44032D4F8A0000243A2
:100B10000A6000E035432068400329D5D4F88400FA
:100B2000B0F5801F06D0B0F5001F09D0B0F5401F0A
:100B30000DD00DE05948016851F40031016008E022
:100B4000012114F1240000F051FB060001E000E057
:100B500001263000C0B2002809D1DFF868130A6806
:100B600032F44012D4F8840002430A6000E03543B6
:100B70002068C00320D5E06C002803D0B0F5803F8A
:100B800006D00BE04548016851F40031016006E0F1
:100B90000221201D00F0ACFA060000E00126300022
:100BA000C0B2002807D140490A6832F48032E06CB4
:100BB00002430A6000E035432068800005D5022129
:100BC00014F1240000F012FB05432068800325D5B2
:100BD000E06F002811D0B0F5807F06D0B0F5007F1F
:100BE00009D0B0F5407F07D008E02C48016851F4E7
:100BF0000031016003E002E001E000E00126300086
:100C0000C0B2002808D1DFF8BC120A6832F4407282
:100C1000E06F02430A6001E02E4335002068C00205
:100C200006D51F490A6822F00042206F02430A607D
:100C30002068C00008D5DFF8A0100A6832F48042AE
:100C4000D4F8B40002430A602068800206D5144933
:100C50000A6832F08072A06E02430A602068400089
:100C60000AD5DFF87410086830F4004008600A689C
:100C7000D4F8B80002430A602068002806D50A4963
:100C80000A6832F04052206D02430A60EDB2002D36
:100C900001D1002000E00120BDE8F0812C44025881
:100CA00050440258584402584C44025880B500F051
:100CB0001CFDDFF830160968DFF8242611F07001FA
:100CC0005FF00063B3FA83F3D940515CC84002BDC2
:100CD000004802587044025810440258CFFFFF00E9
:100CE00010B400210121002100219FED770A9FED22
:100CF000760ADFF8F4130B6813F003030968C1F3F5
:100D00000532DFF8E8130C6814F01004DFF8D8158A
:100D10000968C1F3CC014C4300EE104AB8EE400A1A
:100D2000002B03D0022B64D045D380E0DFF8BC3524
:100D30001968890621D5DFF8A8141B68C3F3C1031D
:100D4000D940B1FBF2F100EE901AF8EE600ADFF83C
:100D5000A0150968C905C90D01EE101AB8EE411AAF
:100D6000DFED5A1A80EE210A31EE000AB7EE001AC2
:100D700030EE010A20EE800A1CE0DFF86414B1FBBB
:100D8000F2F100EE901AF8EE600ADFF864150968D7
:100D9000C905C90D01EE101AB8EE411ADFED4B1A64
:100DA00080EE210A31EE000AB7EE001A30EE010A99
:100DB00020EE800A58E0DFF82C14B1FBF2F100EECF
:100DC000901AF8EE600ADFF828150968C905C90D00
:100DD00001EE101AB8EE411ADFED3C1A80EE210A3E
:100DE00031EE000AB7EE001A30EE010A20EE800A5A
:100DF0003AE0DFF8F413B1FBF2F100EE901AF8EEEE
:100E0000600ADFF8EC140968C905C90D01EE101A73
:100E1000B8EE411ADFED2D1A80EE210A31EE000AFC
:100E2000B7EE001A30EE010A20EE800A1CE0DFF86F
:100E3000B413B1FBF2F100EE901AF8EE600ADFF89D
:100E4000B0140968C905C90D01EE101AB8EE411AAF
:100E5000DFED1E1A80EE210A31EE000AB7EE001A0D
:100E600030EE010A20EE800ADFF884140A68C2F32B
:100E70004622521C00EE902AF8EE600AC0EE200ACC
:100E8000FCEEE00AC0ED000A0A68C2F30642521CFA
:100E900000EE902AF8EE600AC0EE200AFCEEE00AAE
:100EA000C0ED010A0968C1F30661491C00EE901A01
:100EB000F8EE600A80EE200ABCEEC00A80ED020A5D
:100EC00010BC704754440258000000000000004667
:100ED00010B400210121002100219FED760A9FED31
:100EE000750ADFF804120B6813F003030968C1F3F5
:100EF0000552DFF8F8110C6814F48074DFF8F4136D
:100F00000968C1F3CC014C4300EE104AB8EE400A28
:100F1000002B03D0022B64D045D380E0DFF8CC3324
:100F20001968890621D5DFF8B8121B68C3F3C1031D
:100F3000D940B1FBF2F100EE901AF8EE600ADFF84A
:100F4000B8130968C905C90D01EE101AB8EE411AA7
:100F5000DFED591A80EE210A31EE000AB7EE001AD1
:100F600030EE010A20EE800A1CE0DFF87412B1FBBB
:100F7000F2F100EE901AF8EE600ADFF87C130968CF
:100F8000C905C90D01EE101AB8EE411ADFED4A1A73
:100F900080EE210A31EE000AB7EE001A30EE010AA7
:100FA00020EE800A58E0DFF83C12B1FBF2F100EECF
:100FB000901AF8EE600ADFF840130968C905C90DF8
:100FC00001EE101AB8EE411ADFED3B1A80EE210A4D
:100FD00031EE000AB7EE001A30EE010A20EE800A68
:100FE0003AE0DFF80412B1FBF2F100EE901AF8EEED
:100FF000600ADFF804130968C905C90D01EE101A6B
:10100000B8EE411ADFED2C1A80EE210A31EE000A0B
:10101000B7EE001A30EE010A20EE800A1CE0DFF87D
:10102000C411B1FBF2F100EE901AF8EE600ADFF89D
:10103000C8120968C905C90D01EE101AB8EE411AA7
:10104000DFED1D1A80EE210A31EE000AB7EE001A1C
:1010500030EE010A20EE800ADFF89C120A68C2F323
:101060004622521C00EE902AF8EE600AC0EE200ADA
:10107000FCEEE00AC0ED000A0A68C2F30642521C08
:1010800000EE902AF8EE600AC0EE200AFCEEE00ABC
:10109000C0ED010A0968C1F30661491C00EE901A0F
:1010A000F8EE600A80EE200ABCEEC00A80ED020A6B
:1010B00010BC7047000000000000004610B500F0B2
:1010C00021FADFF818120968DFF83022DFF8103251
:1010D00011F470615FF40004B4FA84F4E140595CE7
:1010E000C8401060106810BD284402582C440258B3
:1010F0002DE9F84307000C000025DFF80482D8F83A
:10110000000010F00300032801D1012065E0774EB4
:10111000306830F08060306000F0F6F8814630686A
:10112000000107D500F0F0F8B0EB09000328F6D372
:10113000032052E0D8F8000030F47C30396850EADF
:101140000130C8F800007868401EC005C00DB968BD
:10115000491E490211F47E410843F968491E0904F9
:1011600011F4FE0108433969491E090611F0FE41D8
:1011700008435F49086063490A6832F0C002786931
:1011800002430A600A6832F02002B86902430A602A
:10119000002C04D1086850F4002008600AE0012CFB
:1011A00004D1086850F48010086003E0086850F427
:1011B00000100860306850F08060306000F0A4F8E3
:1011C00004003068000106D400F09EF8001B0328DC
:1011D000F7D3032001E02800C0B2BDE8F28300008D
:1011E0000090D00300093D0040787D012DE9F843CF
:1011F00007000C000025DFF80881D8F8000010F087
:101200000300032801D1012065E0384E306830F03A
:101210008050306000F078F881463068800007D553
:1012200000F072F8B0EB09000328F6D3032052E077
:10123000D8F8000030F07C70396850EA0150C8F8E6
:1012400000007868401EC005C00DB968491E4902FB
:1012500011F47E410843F968491E090411F4FE01A6
:1012600008433969491E090611F0FE410843224925
:10127000086024490A6832F44062786902430A60CF
:101280000A6832F40072B86902430A60002C04D183
:10129000086850F4800008600AE0012C04D1086856
:1012A00050F40000086003E0086850F080700860A7
:1012B000306850F08050306000F026F8040030684C
:1012C000800006D400F020F8001B0328F7D3032089
:1012D00001E02800C0B2BDE8F283000018440258C3
:1012E000307D0008204402583C4402580044025813
:1012F0003844025844440258404402580400002034
:10130000284402582C44025801480068704700BF26
:10131000B45300202DE9F04104000D000020DFF857
:101320005C64306810F00700A8420BD23068C00837
:10133000C00028433060306810F00700A84201D098
:101340000120DDE02078800707D5DFF814140A6853
:1013500012091201E06802430A602078C0077BD5B9
:10136000DFF8FC130A6832F47062A06802430A6076
:101370006068022806D1DFF8E003006880031CD40F
:101380000120BDE06068032806D1DFF8CC030068C7
:10139000800112D40120B3E06068012806D1DFF893
:1013A000B8030068C00508D40120A9E0DFF8A8034D
:1013B0000068400701D40120A2E0DFF8A07339687B
:1013C000C908C900606801433960FFF79DFF804686
:1013D000606802280ED1386810F0380010283BD021
:1013E000FFF792FFB0EB080041F289318842F2D357
:1013F000032085E0606803280ED1386810F03800BB
:10140000182829D0FFF780FFB0EB080041F289319E
:101410008842F2D3032073E0606801280ED1386857
:1014200010F03800082817D0FFF76EFFB0EB080067
:1014300041F289318842F2D3032061E0386810F02C
:10144000380F09D0FFF760FFB0EB080041F2893197
:101450008842F3D3032053E0306810F00700854240
:101460000BD23068C008C00028433060306810F0EC
:101470000700A84201D0012042E02078400707D5AC
:10148000DFF8DC120A6832F07002206902430A6059
:101490002078000707D5DFF8CC120A6832F0700216
:1014A000606902430A602078C00607D5DFF8B412ED
:1014B0000A6832F4E062A06902430A60207880067C
:1014C00007D5DFF8A4120A6832F07002E06902431F
:1014D0000A6000F017F8DFF888120968DFF8A02228
:1014E00011F470615FF40003B3FA83F3D940515CE7
:1014F000C840DFF8901208600F2000F003FC0020C5
:10150000BDE8F081012000200120002000209FED97
:10151000900A9FED8F0A0020DFF84002006810F06B
:101520003800002806D0082813D0102814D0182816
:1015300015D0D8E0DFF820120868800606D5DFF85D
:1015400048020968C1F3C101C84001E0DFF8380270
:10155000CAE0DFF83802C7E0DFF83402C4E0DFF8A1
:101560000C02026812F003020068C0F30511DFF8F4
:101570000002036813F00103DFF8FC010068C0F308
:10158000CC00434300EE103AB8EE400A002A03D0E4
:10159000022A61D044D37BE0DFF8BC2110688006CA
:1015A00021D5DFF8E4011268C2F3C102D040B0FBDC
:1015B000F1F000EE900AF8EE600ADFF8B80100687A
:1015C000C005C00D01EE100AB8EE411ADFED611A38
:1015D00080EE210A31EE000AB7EE001A30EE010A61
:1015E00060EE800A1BE0DFF8A001B0FBF1F000EE36
:1015F000900AF8EE600A5F480068C005C00D01EE71
:10160000100AB8EE411ADFED531A80EE210A31EECE
:10161000000AB7EE001A30EE010A60EE800A52E0CE
:101620005A48B0FBF1F000EE900AF8EE600A51481B
:101630000068C005C00D01EE100AB8EE411ADFEDDA
:10164000451A80EE210A31EE000AB7EE001A30EE9C
:10165000010A60EE800A36E04D48B0FBF1F000EE82
:10166000900AF8EE600A43480068C005C00D01EE1C
:10167000100AB8EE411ADFED371A80EE210A31EE7A
:10168000000AB7EE001A30EE010A60EE800A1AE096
:101690003E48B0FBF1F000EE900AF8EE600A3548E3
:1016A0000068C005C00D01EE100AB8EE411ADFED6A
:1016B000291A80EE210A31EE000AB7EE001A30EE48
:1016C000010A60EE800A2B480068C0F34620401CE7
:1016D00000EE100AB8EE400A80EE800ABCEEC00AA6
:1016E00010EE100A00E02948704710B5FFF7E6FC3D
:1016F0001B490968274A224B11F00F015FF0004493
:10170000B4FA84F4E140595CC8401060106810BD20
:1017100080B5FFF7EAFF13490968194A11F0700113
:101720005FF00063B3FA83F3D940515CC84002BD57
:1017300080B5FFF7DAFF0B490968114A11F4E0613F
:101740005FF40003B3FA83F3D940515CC84002BD93
:1017500000000000000000460044025810440258F7
:10176000184402581C440258204402582844025885
:101770002C4402583044025834440258002000528D
:10178000307D0008040000200090D00300093D00D7
:1017900040787D010800002070B50400002020780A
:1017A000C00773D5DFF82C05016811F03801102946
:1017B0000BD0006810F03800182810D1DFF8180599
:1017C000006810F00300022809D1DFF81005006856
:1017D00080035BD56068002858D1012079E26068F9
:1017E000B0F5803F06D1DFF8F404016851F4803190
:1017F000016026E0606800280AD1DFF8E004016893
:1018000031F480310160016831F48021016018E019
:101810006068B0F5A02F0AD1DFF8C004016851F468
:1018200080210160016851F48031016009E0DFF836
:10183000AC04016831F480310160016831F4802129
:1018400001606068002810D0FFF75EFD0500DFF83A
:101850008C040068800319D4FFF756FD401B41F249
:1018600089318842F3D3032033E2FFF74DFD0500B1
:10187000DFF868040068800308D5FFF745FD401BCA
:1018800041F289318842F3D3032022E22078800795
:101890003BD5DFF84004016811F0380F0AD000682A
:1018A00010F03800182850D1DFF82C04006810F030
:1018B000030F4AD1DFF824542868400704D5E068B4
:1018C000002801D1012004E2296831F01901E06803
:1018D00001432960FFF718FD06002868400706D479
:1018E000FFF712FD801B0328F7D30320F1E1DFF897
:1018F000F00301685FF47C22B2FA82F231F47C31A9
:10190000236913FA02F2114301602078C00663D5FF
:10191000DFF8C003016811F0380108290BD0006816
:1019200010F0380018286FD1DFF8AC03006810F011
:101930000300012868D1DFF8A4030068C0053ED584
:10194000E06980283BD00120C3E1E068002823D073
:10195000DFF88863316831F01901E06801433160D4
:10196000FFF7D2FC05003068400706D4FFF7CCFC37
:10197000401B0328F7D30320ABE1DFF864030168C1
:101980005FF47C22B2FA82F231F47C31236913FADB
:1019900002F211430160B8E7DFF8406330684008A5
:1019A00040003060FFF7B0FC050030684007ACD560
:1019B000FFF7AAFC401B0328F7D3032089E1DFF8D7
:1019C000200301683E22B2FA82F231F0F841236A24
:1019D00013FA02F211430160207800075AD56069BA
:1019E000002845D0BF4E306850F001003060FFF74E
:1019F0008BFC0500306880074CD4FFF785FC401B4A
:101A00000328F7D3032064E1E06900281ED0B34E19
:101A1000306850F080003060FFF776FC05003068D9
:101A2000C00506D4FFF770FC401B0328F7D3032042
:101A30004FE1AB4801683E22B2FA82F231F0F84140
:101A4000236A13FA02F211430160C5E7A34E30681E
:101A500030F080003060FFF757FC05003068C005AB
:101A6000BAD5FFF751FC401B0328F7D3032030E120
:101A70009C4E3068400840003060FFF745FC050090
:101A80003068800706D5FFF73FFC401B0328F7D3DB
:101A900003201EE12078800626D5A069002811D0F9
:101AA0008E4E306850F480503060FFF72DFC0500FA
:101AB0003068800418D4FFF727FC401B0328F7D3B5
:101AC000032006E1854E306830F480503060FFF727
:101AD0001BFC05003068800406D5FFF715FC401B91
:101AE0000328F7D30320F4E02078400760D57E4E2A
:101AF000306850F480703060FFF706FC05003068F5
:101B0000C00506D4FFF700FC401B6528F7D303206F
:101B1000DFE0A068012805D17448016851F0010197
:101B2000016022E0A068002809D1704801684908D6
:101B300049000160016831F00401016015E0A0680E
:101B4000052809D16948016851F004010160016864
:101B500051F00101016008E064480168490849004A
:101B60000160016831F004010160A06800280FD015
:101B7000FFF7CAFB05005D480068800718D4FFF72F
:101B8000C3FB401B41F289318842F4D30320A0E01B
:101B9000FFF7BAFB050055480068800708D5FFF736
:101BA000B3FB401B41F289318842F4D3032090E01B
:101BB000606A002800F08C804648006810F0380009
:101BC000182800F08380606A02286DD1434D286890
:101BD00030F080702860FFF797FB060028688001CE
:101BE00006D5FFF791FB801B0328F7D3032070E095
:101BF00039490A683E480240A06A0243E06A52EA54
:101C000000120A60206B401EC005C00D616B491EAA
:101C1000490211F47E410843A16B491E090411F4E5
:101C2000FE010843E16B491E090611F0FE4108431D
:101C30003049086030480168304AB2FA82F26FF3E6
:101C4000CF01A36C13FA02F2114301602C490A6818
:101C500032F00C02206C02430A600A6832F0020281
:101C6000606C02430A60086850F4803008600868BD
:101C700050F400300860086850F48020086008685C
:101C800050F001000860286850F080702860FFF76D
:101C90003BFB0400286880011AD4FFF735FB001BCA
:101CA0000328F7D3032014E00C4D286830F080702F
:101CB0002860FFF729FB04002868800108D5FFF79A
:101CC00023FB001B0328F7D3032002E0012000E0E0
:101CD000002070BD104402582844025800440258A5
:101CE0000444025874440258004802587044025890
:101CF0000CFCFFFF30440258344402580000FF1F20
:101D00002C44025810B504004FF47A700D4909783C
:101D1000B0FBF1F00C490968B1FBF0F000F098F865
:101D2000002801D001200CE0102C09D20022210053
:101D30005FF0FF3000F077F804480460002000E016
:101D4000012010BD8C0000200400002000000020B5
:101D500010F00700634B1A684FF6FF010A40624912
:101D600051EA00210A431A6070475E480068C0F3D8
:101D700002207047010009B2002908D4012210F0A6
:101D80001F018A40594900B2400941F8202070479C
:101D9000020012B2002A04D40901554A00B21154BB
:101DA00007E00901534A00B210F00F00104400F898
:101DB000041C704710B410F00700D0F10703052B86
:101DC00001D3042301E0D0F10703041D072C01D245
:101DD000002000E0C01E012414FA03F35B1E19402A
:101DE000814014FA00F0401E1040084310BC7047B8
:101DF00080B5411EB1F1807F01D301200EE0401E6D
:101E00003D4908600F215FF0FF30FFF7C1FF002060
:101E10003A49086007203A490860002002BD80B5B1
:101E2000FFF796FF01BD70B504000D001600FFF727
:101E30009CFF32002900FFF7BDFF0100200000B227
:101E4000FFF7A6FF70BD80B500B2FFF793FF01BD9D
:101E500080B5FFF7CDFF02BDBFF35F8F2948016852
:101E600031F480310160002027490860704750F04C
:101E70000100254908602348016851F48031016060
:101E8000BFF34F8FBFF36F8F704741781F4A1160C8
:101E9000017800291ED041681D4A1160017BC27A79
:101EA000120652EA0172817A52EAC142417B52EA39
:101EB0008142817B52EA4142C17B52EA0142417A2E
:101EC00052EA0122017A52EA4102007802431148A3
:101ED000026005E000200E49086000200D490860FE
:101EE000704700000CED00E00000FA0500E100E0A2
:101EF00000E400E018ED00E014E000E018E000E08D
:101F000010E000E024ED00E094ED00E098ED00E04A
:101F10009CED00E0A0ED00E02DE9F0439FB000BF94
:101F200065A6269CDFF8E88A8DF83B4002910024E4
:101F30000B944FF0FF37044691461D460AE019F80E
:101F4000011B0298A0470028029000F0A1800B9886
:101F5000401C0B9099F8000050B12528EFD10021CA
:101F60000022059106920791089209910A9203E0D6
:101F70000B98A5E041F0010119F8010F2028F9D0D4
:101F800023280CD02B2804D02D2805D0302809D0A8
:101F900080E041F00201EFE741F00401ECE741F09D
:101FA0000801E9E741F01001E6E70D920AE00D981B
:101FB000404505DA00EB800002EB4002303A0D921A
:101FC00009F1010999F80020A2F130000A28EED3A6
:101FD00099F800002E2818BF0C9726D119F8010F88
:101FE0002A2808D12868286009F1010950F8042B33
:101FF00028600C9219E02D280CBF09F1010900207E
:1020000000220C920BE040B90C9A424505DA02EB33
:10201000820203EB4203303B0C9309F1010999F86A
:102020000030A3F130020A2AEDD3ADF83810304663
:1020300099F8001000F0A0FE08B119F8010B8DF816
:102040003A009DF83A00682805D199F80000682800
:102050000CD1622106E06C2804BF99F800006C28BE
:1020600004D171218DF83A1009F1010910A80490EA
:102070002A4619F8013B6946204600F061F838B954
:1020800010AA6946204600F091F900287FF562AF5A
:10209000384615E02A2888D12A682A6052F8040BAD
:1020A0002A6000280D9003D540420D9041F00401B4
:1020B00009F101098CE70000686A6C747A4C000031
:1020C0001FB0BDE8F083622820D0682811D06A28AC
:1020D00003D06C2827D0712825D10868C01D20F0B6
:1020E00007000860D0E90023083008601946104650
:1020F0007047002A0A680A60106803D0121D0A603F
:1021000000B217E0121D0A6080B217E0002A0A68C8
:102110000A60106803D0121D0A6040B20AE0121D66
:102120000A60C0B20AE0002A0A680A60106803D098
:10213000121D0A60C1177047121D0A600021704706
:1021400070B51C460D46B4F125002E69114600F00D
:102150001B811C386AD0001F022867D9133843D06E
:10216000093863D0801E16D0401E1ED0401E0228A3
:102170005CD9001F19D0401F00F08380401E33D06F
:10218000401E00F0CD80C01E00F0DC80801E2BD0F1
:10219000C01E29D0FEE06869421C6A610A680A60B4
:1021A00052F8043B0A603354FEE095F83A000122ED
:1021B000FFF789FFC5E900010023994204DA686945
:1021C000411C69612D220DE0288F810704D56869C3
:1021D000411C69612B2205E0C00722D56869411CBA
:1021E0006961202232541CE095F83A000022FFF782
:1021F0006AFFC5E9000195F83800010711D5D5E956
:1022000000230020834208BF82420AD044F020000D
:10221000782806D1686930213154401C421C6A611B
:102220003454214668693044E86087E00868C01D7E
:1022300020F007000860D0E9002308300860C5E9F5
:102240000023D5E90001C80F04D06869411C696109
:102250002D220DE0288F810704D56869411C696132
:102260002B2205E0C00704D56869411C6961202262
:10227000325468693044E8602146284600F0C8F9C5
:1022800092E005F13A02507820B14FF0FF340FF69A
:10229000502062E01078622808D0682824D06A288C
:1022A00012D06C282ED071280ED02BE00A680A605C
:1022B00052F8040B0A6020B94FF0FF340FF63820B3
:1022C0004BE0E96A01706FE00A680A6052F8040B9B
:1022D0000A6020B94FF0FF340FF61C203DE0EA6A97
:1022E000D317C0E900235FE00A680A6052F8040BC4
:1022F0000A6020B94FF0FF340FF6FC102DE0E96AB8
:10230000018051E00A680A6052F8040B0A6020B9A3
:102310004FF0FF340FF6E0101FE0E96A016043E080
:102320000A680A6052F8040B0A60002120F00002DB
:1023300021F0FF33C5E90023EE607821284600F044
:10234000BBF831E00868086050F8044B0860EC60A6
:102350003CB94FF0FF340FF6B81000F01FFD201A03
:1023600070BD2E6B002E04D5204600F037FD0446CC
:1023700008E032460021204600F04CFD002814BF42
:10238000041B3446AC610FE06869411C6961252279
:10239000325409E06969481C6861252272542100A1
:1023A00002D0431C6B613454002070BD2DE9FC4108
:1023B0000F46064690467A6B7869396ABC6A121AEB
:1023C000B869521A796A121AF869521A121A97F8E9
:1023D0003800141B41070FD42020002C8DF800007A
:1023E0000ADD254601236A463946304600F060FC86
:1023F00000285DD16D1EF5D17B69424639463046D5
:1024000000F056FC002853D130208DF800003D6AC2
:10241000002D09DD01236A463946304600F048FCAC
:10242000002845D16D1EF5D1BB69FA6839463046A2
:1024300000F03EFC00283BD130208DF800007D6A82
:10244000002D08DD01236A463946304600F030FC95
:1024500070BB6D1EF6D1F868B969FB694218394640
:10246000304600F025FC18BB30208DF80000BD6A16
:10247000002D08DD01236A463946304600F018FC7D
:10248000B0B96D1EF6D197F8380041070DD5202060
:10249000002C8DF8000008DD01236A4639463046DD
:1024A00000F006FC20B9641EF6D10020BDE8F681DC
:1024B0004FF0FF30BDE8F6812DE9FC4707468C461A
:1024C0003E69BCF16F0F08BF082405D04CF0200016
:1024D000782814BF0A2410243C25D7E90023BCF136
:1024E000640F18BFBCF1690F9046994606D10021D0
:1024F0008B4203DAD8F1000869EB49094FF0000A72
:10250000D14508BFD0451FD1386BE8B9082C4BD155
:1025100097F83800010747D530203B2586F83B0067
:1025200042E000280ED597F8380000F0140010287B
:1025300008D17B6B7969386A5B1A1B1A9A1A002AD0
:10254000C8BF3A62BDE8F3878DF800C040464946EF
:102550002246E31700F08AFC3032D0B26D1E3A28D2
:10256000019504DB9DF80000A0F151018A18725515
:10257000404649462246E31700F078FC89468046EB
:10258000D14508BFD04503D0F86871198842DDD322
:10259000082C09D197F83800010705D5705D30285F
:1025A00002D06D1E30207055C5F13C02BA61711920
:1025B000F960386B8242B4DA821A3A624FF6EF70F1
:1025C000398F01403987BDE8F3872DE9D0430646AE
:1025D0000F4614464FF00008DFF8389412E0E00789
:1025E00007D542464B463046394600F057FD064671
:1025F0000F464046494642464B4600F04FFD6410A8
:1026000080468946002CEAD130463946BDE8D08361
:102610002DE9F34F054641F020048DB0D5E900893E
:10262000612C02AE09D0286B002848BF062003D4D5
:1026300008BF672C01D101202863D5E90023580089
:102640004015401C0ED119030CD00320A8619DF841
:10265000381061391A2902D20FF2D06111E00FF25D
:10266000D0610EE059004915491C0FD118030DD156
:102670000320A8619DF8381061391A2914D30FF28C
:10268000B861E868032200F013FDD3E1194621F098
:102690000043B3F5801F10460DD20027BB4208BF90
:1026A000BA42019703D111E00FF28861E9E701AA6C
:1026B00000F052FD0AE0DFF8607307EB1352DFF819
:1026C0005C3301921940DFF858331943C5E9000122
:1026D000612C0ED1E86830210170821CEA609DF8FF
:1026E000381061290CBF7821582141706869801C1D
:1026F0006861D5E900AB2BF0004300202AF000020E
:10270000834204BF8242002300F05B81612C40F0D1
:10271000AA80286B002847BF21210091401C00900F
:10272000009F7F1C404649460022002300F04CFDDC
:10273000D94601998DF8082038BF89F00049091F52
:10274000002FD04601910DF1090040F34981B349B2
:10275000DFF8D0B20C9106464046494600220023DD
:1027600000F04AFD80F03B814800400D00F11C0262
:1027700011D0002A0FDD40F2FF70824205DB09F024
:10278000004040EA0B01002013E00C98014041EAB0
:10279000025140460DE029F00043002028F00002DD
:1027A000834208BF82420FBF40461C22404600F0D1
:1027B0003BFD8046894600F0B9FDFF1F002F04460F
:1027C00009DD00F0BAFD02460B464046494600F0DE
:1027D000BBFD80468946F01D072104E004F00F028E
:1027E00000F8012D2411002C01DD491EF6D5491EEB
:1027F0005CBF002200F8012DF9D5ECE0002019465D
:1028000002AA0A4400E05B1E12F80149491E8442F4
:10281000F9D00F2804D10DF10900425C521C42543A
:10282000002904D50198001D02AE5B1C0190591EC1
:1028300012D49DF838007218A0F13A07147804F108
:1028400030085FFA88F43A2CA8BFB844491E02F851
:102850000189F3D58DF83800286B002840F1B0804D
:10286000591E2963ACE0404649460022002300F08F
:10287000ABFC019938BF89F0004947F297504143BA
:10288000694A91FBF2F20192D2F1070204DD40465F
:102890004946FFF79AFE0AE0524200206349FFF7DB
:1028A00094FE02460B464046494600F056FD8046DF
:1028B000662C286BDFF878B106BF019F0A37062720
:1028C0003F18142FC8BF142730208DF80800894600
:1028D0000DF1090000E03046002F34DD0646404689
:1028E000494600F043FD01460A4606F1080304206C
:1028F0000A26B2FBF6F606EB860EA2EB4E0230324B
:1029000003F8012C0A22B6FBF2F202EB820EA6EBD0
:102910004E063036401E03F8026DE9D1083F002F05
:1029200003F10806D7DD084600F027FD02460B46F6
:102930004046494600F008FD00225B4600F0AEFB31
:1029400080468946CBE70DF10901401A0DF10906D1
:1029500004E00199491E401E0191761C317830290E
:10296000F7D0662C02D10199491C03E0652C0CBFFD
:10297000012100212B6BCB189842B8BF431E002BBE
:102980001ED4834204DAF05C3528A8BF392000DA6F
:1029900030201946721E02EB010800E05B1E18F899
:1029A0000199491E8145F9D0392802D1705C401C3B
:1029B0007054002904D50198401C16465B1C0190F8
:1029C000019800B200901BB29DF83810324628469C
:1029D00000F034F82EE0C61D002F3FF7BDAE3046A4
:1029E0000DF10901401A009903468842C8BF0B4601
:1029F000002B0DF109063FF52FAF8342BFF6FEAE67
:102A00000DF10900C15C07297FF7F8AE0F20F6E64B
:102A1000CBCCCC0C0000244002FCFFFFFFFF0F805A
:102A20000000E03F0000F07FA08601000000F03FC2
:102A300084D797410FB0BDE8F08F00002DE9F8472B
:102A400083B006468A461746984600F09DFCB8F1CA
:102A5000000F406A356B90F8009002DC4FF00108DF
:102A6000B6A74AF02000BDF93040662808BF641CB4
:102A700015D0672840F0848014F1040FC0F28680DE
:102A8000AC4280F2838096F83800641C010702D4BF
:102A9000A845B8BF454620B22D1A48BF00250FFAF9
:102AA00084FAF068B169BAF1000F25DC4A1C3023C2
:102AB0004354002D03DC96F83800010703D5F06875
:102AC00000F80290521C15EB0A0FB8BF6C4220B2FE
:102AD000441941424445B8BFA046B26171620FFA41
:102AE00088F5F561F068B3692A463946184400F064
:102AF000DFFA641BB462C4E022B29045084417DADE
:102B00004246394600F0D4FAB0694044B061AAEBBD
:102B10000801002D716203DC96F838100A0705D50C
:102B2000F16801F80090F069401CF061B562A8E01E
:102B3000394600F0BDFAB069002D5044A8EB0408F6
:102B400003DC96F838100A0703D5F16801F8009005
:102B5000401CB0610FFA88F08542F368B069B8BFD5
:102B6000A8460FFA88F207EB0A01184400F0A0FA11
:102B7000B1690FFA88F00144B161281A706280E0EF
:102B8000BAF1610F14D14FF0700A16E0A84504DACB
:102B900096F838100A0758BF45466D1E48BF0025F5
:102BA000BAF1670F14BF4FF0450A4FF0650A04E011
:102BB000BAF1410F08BF4FF0500AB169F368481CE1
:102BC000B061002D17F8012B5A5403DC96F8381029
:102BD0000A071BD5F168431CB36101F80090002D72
:102BE00014DDA8F101080FFA88F039468542F7682C
:102BF000B8BFA8460FFA88F2F81800F059FAB06981
:102C00000FFA88F108446D1AB0617562F068B16915
:102C10000844002C80F800A003D42B224270811CB1
:102C200003E02D2141706442811C00206A460AE0C5
:102C300023460A2493FBF4F404EB8405A3EB450339
:102C400002F8013B401C24B2002CF1DC012806DC18
:102C50004AF02002652A04BF302201F8012B48B94E
:102C6000302001F8010B07E0401E1DF80030303322
:102C700001F8013B0028F7DCF268B0691044091A3A
:102C8000F16196F8380000F0140010280DD1726937
:102C9000B169706A8A18F1698218B06A8A18821854
:102CA000706B8242BCBF821A326204B0BDE8F0870A
:102CB000F8B505460E4617461C46002074B117F8B5
:102CC000011BB068A847B06030B1F06A401CF062E8
:102CD0000020641EF3D1F2BD4FF0FF30F2BD0000C2
:102CE0007072696E74665F733A20256E2064697332
:102CF000616C6C6F776564007072696E74663A20FF
:102D000062616420256E20617267756D656E740066
:102D10007072696E74665F733A2062616420257315
:102D200020617267756D656E740000006E616E00E3
:102D30004E414E00696E6600494E4600300030B488
:102D4000002513E050F8042BD30744BFA9F1010379
:102D50009A18091F042942F8045BFAD213468C071B
:102D600044BF15809B1CC90748BF1D7050F8041B49
:102D70000029E7D130BC70470278C9B28A421AB143
:102D80001CBF10F8012FF9E718BF002070477047EB
:102D9000FEE7FEE7FEE770477047704780B500B971
:102DA00006A005490B681BB122220021984701E0CB
:102DB00000F0EEFA222002BDB8530020636F6E735C
:102DC000747261696E742068616E646C65723A2019
:102DD000626164206D6573736167650000F10103D2
:102DE000810704D010F8011B820781B1FAD1026873
:102DF000A2F10131914311F0803104BF50F8042F4A
:102E0000F6E709BAB1FA81F100EBD100401CC01A13
:102E100070470000C9B2830706D0521E22D310F8B3
:102E2000013B9942F7D11FE0083A13D302F10402A3
:102E300041EA012141EA014150F8043B121F21BF40
:102E40004B40A3F1013C2CEA030C1CF0803FF3D073
:102E5000C9B2001F083210F8013B521E28BF91EA88
:102E6000030FF8D818BF0120401E7047BBBBE1B16B
:102E7000B2F5803F80F07E80022A1ED98C46B1FBDD
:102E8000F2F102FB11C31B0443EA1043B3FBF2FC53
:102E900002FB1C3380B240EA0343B3FBF2F002FBB7
:102EA000103240EA0C4000237047022A05D98446BC
:102EB000B0FBF2F002FB10C270474AB105D100F03E
:102EC000010249085FEA3000704700220023704782
:102ED00000F062BA0B00020000210020704790420F
:102EE00071EB030CF6D3B3F5803F2FD2F0B5B3FAF4
:102EF00083F7B1FA81F4A7F10F0E3D1B5340CEF1D9
:102F0000200602FA0EF2F3415340B5F10F0746D8FE
:102F10000F3C2C444140C4F12006A040F141414007
:102F2000B1FBF3F603FB1611A2FB0645001BA941FA
:102F300002D2761E8018594180EA010221FA0EF36E
:102F400062FA0EF200215A403046F0BD30B4B1FBB7
:102F5000F3FC03FB1C11A2FB0C45001BA94103D28F
:102F6000ACF1010C8018594130BC02460B4660465A
:102F700000217047B2F1807F65D3F0B5B2FA82F7D5
:102F8000B1FA81F4C7F10F063D1B22FA06F307F1EF
:102F9000110EF24120355A40B5F10F07B8D9414022
:102FA000C4F12006A040F1414140B1FBF3FC03FB1A
:102FB0001C11A2FB0C45001BA94103D2BCF1010C62
:102FC000801859410F2F12D30F3FC90341EA5041D6
:102FD000B1FBF3F603FB1611A2FB0645D4EBC030A0
:102FE000A94102D2761E8018594146EACC3C07B36B
:102FF0004140C7F12006B840F1414140B1FBF3F632
:1030000003FB1611A2FB0645001BA94102D2761E46
:103010008018594180EA010221FA0EF3C7F1200419
:1030200062FA0EF20CFA07F05A402CFA04F130431F
:10303000F0BD80EA010221FA0EF3002162FA0EF2DD
:1030400060465A40F0BD8C46B1FBF2F102FB11C361
:103050001B0243EA1063B3FBF2FC02FB1C331B02AE
:103060004CEA002043EA1063B3FBF2FC02FB1C3382
:103070001B024CEA002043EA1063B3FBF2FC02FBA4
:103080001C331B024CEA002043EA1063B3FBF2FC42
:1030900002FB1C324CEA00200023704741EC100B6D
:1030A00043EC112B20EE010B51EC100B704700008C
:1030B00062B38B0708D0521E11F8013B00F8013BA8
:1030C00000F024808B07F6D1830740F0208000BFFA
:1030D000103A07D330B4B1E83810103AA0E83810ED
:1030E000F9D230BC530724BFB1E80810A0E808109B
:1030F00044BF51F8043B40F8043BD20724BF31F8E9
:10310000022B20F8022B44BF0B7803707047121F6C
:1031100017D35B0009D151F8043B20F8023B1B0C8C
:10312000121F20F8023BF6D20BE051F8043B00F8E6
:10313000013B1B0A20F8023B1B0C121F00F8013B4D
:10314000F3D238BF121D521E24BF11F8013B00F804
:10315000013BF8D87047000010B5144600F002F8A3
:10316000226010BDC1F30A5343B14A0012F5001F9B
:1031700028D2A3F2FE32A1EB0251704750EA410C73
:1031800020D001F0004C31EA0C01B1FA81F204BF09
:10319000B0FA80F3D2180B3AB2F120032CBF00FA38
:1031A00003F1914041EA0C013EBFC2F1200C20FA2C
:1031B0000CF319439040524240F2FD33D21A01EB16
:1031C00003517047002270474FF4001C1CEB410F65
:1031D00094BF1CEB430F09E041EA030C50EA4C0C8E
:1031E00052EA0C0C03D2994208BF9042704714BFB8
:1031F0008B428242704700004FF4001C1CEB410FD1
:1032000094BF1CEB430F09E041EA030C50EA4C0C5D
:1032100052EA0C0C03D28B4208BF8242704714BFA3
:10322000994290427047000041EC100B104600B5E7
:1032300000F004F851EC100B00BD0000020030EE6D
:10324000101B40F2FF7C37D41CEA115313D06345A6
:103250006BD09B18634504D201EB025120EE101B8A
:10326000704701F0004141EA0C51002041EC100B85
:10327000AFF30080704710EE100B50EA410054D0BD
:10328000B2F57F7F08D202EB5C010905002041EC1A
:10329000110B20EE010B70474FF0FE41002341EC73
:1032A000113B20EE010BB2F57E7230EE101B4FEA9F
:1032B000410342EB5353CDE752421CEA115316D05F
:1032C000634532D09A4204D2A1EB025120EE101B8A
:1032D00070475B1ED21AA1EB035120EE101B372A58
:1032E0000CD3002001F0004141EC100BC0E710EEC0
:1032F000100B50EA410018D0372AF2D2C2EB5C0220
:103300001105002041EC110BF1EE100A20F01F0115
:1033100021F4F851E1EE101A20EE010BF1EE101A33
:10332000E1EE100A11F0080FA2D1704741EC100B2A
:10333000BDEEC00B10EE100A704700EE100AB8EE9A
:10334000C00B51EC100B704741EC100B43EC112BF0
:1033500030EE410B51EC100B704741EC100B43EC7D
:10336000112B80EE010B51EC100B704741EC100B50
:10337000BCEEC00B10EE100A704700EE100AB8EE5B
:10338000400B51EC100B7047004870470C000020B8
:10339000012000F003B800007047000080B5AFF3D3
:1033A0000080024A11001820ABBEFBE72600020095
:1033B00010B50400002C01D1012037E0A0690028DD
:1033C000FFD194F87900002805D1002084F8780016
:1033D000200000F0F6FC242084F8790020680068C2
:1033E0004008400021680860200000F020F8012813
:1033F00001D101201AE0606B002802D0200000F00B
:1034000005FC2068406830F49040216848602068DE
:10341000806830F02A00216888602068006850F0D9
:10342000010021680860200000F05DFC10BDF8B5C7
:1034300086B0050000208026002000210024DFF84F
:10344000842728689042FFD0A86AB0F1005FAB687B
:103450002869034368690343E8690343A86A03438F
:1034600028680768DFF8600707403B432868036067
:103470002868436833F44053E8680343286843608E
:10348000AB692868904201D0286A0343A86AB0F16A
:10349000005F03D1EF6A286B07433B4328688768C6
:1034A000DFF8280707403B43286883602868C36A21
:1034B0001B091B01686A03432868C3622868DFF898
:1034C000103798421DD1DFF80C07006810F0380063
:1034D00000280AD008280AD010280AD018280AD0B4
:1034E00020280AD028280AD012E1012610E104265B
:1034F0000EE140260CE108260AE1102608E120260C
:1035000006E12868DFF8D03698421BD1DFF8C40600
:10351000006810F00700002808D002280AD007D35E
:1035200004280BD008D305280AD0F1E00026EFE0EC
:103530000426EDE04026EBE00826E9E01026E7E06F
:103540002026E5E02868DFF8943698421BD1DFF8A2
:103550008406006810F00700002808D002280AD06E
:1035600007D304280BD008D305280AD0D0E00026C2
:10357000CEE00426CCE04026CAE00826C8E01026AB
:10358000C6E02026C4E02868DFF8543698421BD1F4
:10359000DFF84006006810F00700002808D0022875
:1035A0000AD007D304280BD008D305280AD0AFE0EF
:1035B0000026ADE00426ABE04026A9E00826A7E0FF
:1035C0001026A5E02026A3E02868DFF818369842E8
:1035D0001BD1DFF80006006810F00700002808D0B3
:1035E00002280AD007D304280BD008D305280AD014
:1035F0008EE000268CE004268AE0402688E008263B
:1036000086E0102684E0202682E02868DFF8D8359E
:1036100098421DD1DFF8BC05006810F03800002882
:103620000AD008280AD010280AD018280AD0202842
:103630000AD028280AD06BE0012669E0042667E05A
:10364000402665E0082663E0102661E020265FE062
:103650002868DFF8983598421BD1DFF878050068B4
:1036600010F00700002808D002280AD007D3042849
:103670000BD008D305280AD04AE0002648E00426EB
:1036800046E0402644E0082642E0102640E020269E
:103690003EE02868DFF8583598421BD1DFF8340542
:1036A000006810F00700002808D002280AD007D3CD
:1036B00004280BD008D305280AD029E0002627E0EB
:1036C000042625E0402623E0082621E010261FE0FE
:1036D00020261DE0286890421AD1DFF818050068FE
:1036E00010F00700002808D002280AD007D30428C9
:1036F0000BD008D305280AD00AE0022608E00426E9
:1037000006E0402604E0082602E0102600E020261D
:103710002868904240F0FD8000203100C9B20229A3
:103720000AD004290BD0082913D0102920D0202931
:1037300021D0402908D021E0FDF7B8FA1FE003A806
:10374000FDF7CEFA04981AE06846FDF7C1FB019830
:1037500015E0DFF8A4140868800606D5DFF89C049D
:103760000968C1F3C101C84001E0DFF8900406E038
:10377000DFF88C0403E04FF4004000E0012400284F
:1037800000F01B826A6803214A43904205D36A68AD
:103790004FF480514A43824201D201240DE2F6B235
:1037A000022E0BD0042E1ED0082E4AD0102E7BD015
:1037B000202E00F08E80402E2CD09FE0FDF776FA70
:1037C000DFF840146A6A31F81210B0FBF1F24FF4DE
:1037D0008073686840080021E3FB02016A680023E7
:1037E000FFF744FB8BE003A8FDF77AFA0498DFF8B3
:1037F00014146A6A31F81210B0FBF1F24FF48073BE
:10380000686840080021E3FB02016A680023FFF7B3
:103810002DFB74E06846FDF75BFB0198DFF8E413CD
:103820006A6A31F81210B0FBF1F24FF480736868E5
:1038300040080021E3FB02016A680023FFF716FB42
:103840005DE0DFF8B4030168890618D5DFF8AC1332
:103850000068C0F3C100C140DFF8A8036A6A30F80D
:103860001200B1FBF0F24FF4807368684008002149
:10387000E3FB02016A680023FFF7F8FA13E0DFF8C0
:103880007C03DFF880136A6A31F81210B0FBF1F2A2
:103890004FF48073686840080021E3FB02016A6806
:1038A0000023FFF7E3FA2AE0DFF85403DFF85413AC
:1038B0006A6A31F81210B0FBF1F24FF48073686855
:1038C00040080021E3FB02016A680023FFF7CEFAFB
:1038D00015E04FF40040CB496A6A31F81210B0FB92
:1038E000F1F292B24FF48073686840080021E3FB64
:1038F00002016A680023FFF7B9FA00E00124B0F57D
:103900004071C14A914202D22968C86055E1012440
:1039100053E1E869B0F5004F40F0A480F6B2002E04
:103920000CD0012E1AD0042E28D0082E4AD0102EEA
:103930006ED0202E7BD0402E32D088E0FDF7E8FEFE
:10394000B0496A6A31F81210B0FBF1F069684908B1
:1039500011EB40016868B1FBF0F179E0FDF7E8FE9A
:10396000A8496A6A31F81210B0FBF1F06968490899
:1039700011EB40016868B1FBF0F169E003A8FDF7C5
:10398000AFF904989F496A6A31F81210B0FBF1F060
:103990006968490811EB40016868B1FBF0F157E034
:1039A0006846FDF795FA019896496A6A31F812104F
:1039B000B0FBF1F06968490811EB40016868B1FBA0
:1039C000F0F145E08C480168890612D58B49006802
:1039D000C0F3C100C1408B486A6A30F81200B1FBE5
:1039E000F0F06968490811EB40016868B1FBF0F13B
:1039F0000DE0824883496A6A31F81210B0FBF1F099
:103A00006968490811EB40016868B1FBF0F11FE0FB
:103A10007B487C496A6A31F81210B0FBF1F06968A2
:103A2000490811EB40016868B1FBF0F110E04FF478
:103A3000004074496A6A31F81210B0FBF1F069680D
:103A4000490811EB40016868B1FBF0F100E0012486
:103A50004FF6F0720A40C1F34200024392B2286866
:103A6000C260AAE0F6B2002E0DD0012E1DD0042EA9
:103A70002DD0082E53D0102E7BD0202E00F08A801F
:103A8000402E38D098E0FDF743FE5E496A6A31F86F
:103A90001210B0FBF1F0696810EB51006968B0FBDF
:103AA000F1F080B22968C86087E0FDF741FE554912
:103AB0006A6A31F81210B0FBF1F0696810EB51003E
:103AC0006968B0FBF1F080B22968C86075E003A8AE
:103AD000FDF706F904984B496A6A31F81210B0FBF9
:103AE000F1F0696810EB51006968B0FBF1F080B249
:103AF0002968C86061E06846FDF7EAF90198414924
:103B00006A6A31F81210B0FBF1F0696810EB5100ED
:103B10006968B0FBF1F080B22968C8604DE03648B2
:103B20000168890614D535490068C0F3C100C14059
:103B300034486A6A30F81200B1FBF0F0696810EBA3
:103B400051006968B0FBF1F080B22968C8600FE0ED
:103B50002A482C496A6A31F81210B0FBF1F0696802
:103B600010EB51006968B0FBF1F080B22968C860C1
:103B700023E0234823496A6A31F81210B0FBF1F0C0
:103B8000696810EB51006968B0FBF1F080B22968F8
:103B9000C86012E04FF400401A496A6A31F8121006
:103BA000B0FBF1F0696810EB51006968B0FBF1F00F
:103BB00080B22968C86000E001242000C0B207B0CC
:103BC000F0BD0000000C0058F369FFCFFFF4FF11B7
:103BD0000010014054440258004400400048004096
:103BE000004C0040005000400014014000780040AC
:103BF000007C004058440258004402580090D00312
:103C000000093D00247C000800FD0F0090F83410EE
:103C1000C90707D501684A6832F40032816B0A434C
:103C200001684A6090F83410890707D501684A682E
:103C300032F48032C16B0A4301684A6090F8341054
:103C4000490707D501684A6832F48022016C0A43AB
:103C500001684A6090F83410090707D501684A687E
:103C600032F40042416C0A4301684A6090F8341013
:103C7000C90607D501688A6832F48052816C0A430C
:103C800001688A6090F83410890607D501688A684F
:103C900032F40052C16C0A4301688A6090F8341013
:103CA000490613D501684A6832F48012016D0A434F
:103CB00001684A60016DB1F5801F07D101684A684B
:103CC00032F4C002416D0A4301684A6090F8341032
:103CD000090607D501684A6832F40022816D0A435B
:103CE00000684260704738B5040000200020E0679B
:103CF000FDF70AFB05002068006800070DD57FF07E
:103D00007E4000902B0000225FF40011200000F0A4
:103D100021F8002801D003201BE02068006840073C
:103D20000DD57FF07E4000902B0000225FF48001D3
:103D3000200000F00FF8002801D0032009E0202027
:103D400084F87900202084F87A00002084F8780034
:103D5000002032BD2DE9F04105000E0090461F0005
:103D6000069C2868C0693040B04201D1012000E0C3
:103D700000204146C9B2884220D114F1010FF0D091
:103D8000002C04D0FDF7C0FAC01B8442E9D2286899
:103D9000006830F4D070296808602868806840089E
:103DA000400029688860202085F87900202085F867
:103DB0007A00002085F87800032000E00020BDE8AC
:103DC000F081704780B586B0DFF8C408016851F013
:103DD00008010160006810F00800009000980120C0
:103DE000029000200390022004904FF400500190B4
:103DF00001A9DFF8A00800F06DFC00F0CAFB07B0D5
:103E000000BD80B5C0B200280DD100F03BFE0022FD
:103E100000215FF0005000F096FD4FF40050DFF8F5
:103E20007818088006E04FF40050DFF8701808801A
:103E300000F02CFE01BD10B5040000F0F3FB0020E3
:103E4000FFF7DFFFDFF8580800210160DFF85418A2
:103E500020220368CA540268521C02602200120C1D
:103E60000368CA540268521C02602200120A0368E6
:103E7000CA540268521C026002688C540168491CD2
:103E8000016000F0E7FD0120FFF7BBFF00F0DEFB63
:103E900010BD80B500F0C6FB0020FFF7B2FFDFF8D1
:103EA000000800210160C721DFF8F8270368D1541A
:103EB0000168491C016000F0CDFD0120FFF7A1FF62
:103EC00000F0C4FB01BD2DE9F04105000E00140017
:103ED000DFF8D4070068DFF8D417884240F08F80FD
:103EE000200080B2022809DA200080B2022190FB73
:103EF000F1F201FB1200002840F0DE8000F092FB9E
:103F00000020FFF77EFFDFF8987700203860DFF8A9
:103F10009487AD20396808F801003868401C386083
:103F20003000000C396808F801003868401C38601F
:103F30003000000A396808F801003868401C386011
:103F4000386808F800603868401C3860287839689C
:103F500008F80100681C3968491C396001783A6822
:103F600008F80210451C3868401C386000F072FDEB
:103F70000120FFF746FF00F069FBA41E002623E0A6
:103F80000020FFF73EFF00203860AD20396808F8B8
:103F900001003868401C38602878396808F801004A
:103FA000681C3968491C396001783A6808F80210C1
:103FB000451C3868401C386000F04CFD0120FFF7BC
:103FC00020FF00F043FB761C200080B2022190FB12
:103FD000F1F08642D4D30020FFF713FF00203860B1
:103FE0000420396808F801003868401C386000F087
:103FF00031FD0120FFF705FF00F028FB5CE0002702
:1040000016E02B78D0F800C001F80C306D1C036866
:104010005B1C0360521CB2F5807FF2D300F01AFDE6
:104020000120FFF7EEFE00F011FB16F580767F1CF5
:10403000200080B24FF4807190FBF1F0874225D2CE
:1040400000F0F0FA0020FFF7DCFEDFF85406002154
:104050000160DFF8501602220368CA540268521C3D
:1040600002603200120C0368CA540268521C0260DB
:104070003200120A0368CA540268521C02600268C5
:104080008E540268521C02600022C4E70020FFF731
:10409000B8FEDFF80C06002101600421DFF80426D9
:1040A0000368D1540168491C016000F0D3FC012071
:1040B000FFF7A7FE00F0CAFABDE8F0812DE9F8434A
:1040C00005000F001400002C05D0DFF8DC05406966
:1040D000E119884200D24EE00020FFF792FEDFF89F
:1040E000C06500203060DFF8BC05032132688154D0
:1040F0003168491C31603900090C326881543168DB
:10410000491C31603900090A326881543168491C00
:104110003160316847543068401C306000F09AFCD0
:1041200000270EE04FF48058C6F8008000F092FCA3
:104130004246DFF87C15A9464846FEF7B9FF4544DC
:104140007F1C380080B2B0EB143FEBD32405240D64
:10415000200080B200280BD0200080B2306000F038
:1041600079FCA4B2DFF8481522002800FEF7A0FF72
:104170000120FFF746FEBDE8F183F8B507000D000A
:104180001400DFF824054069E119884201D20120BA
:104190004AE0002C01D1002046E00020FFF731FE6C
:1041A000DFF8FC6400203060DFF8F8040321326897
:1041B00081543168491C31603900090C32688154DE
:1041C0003168491C31603900090A3268815431680C
:1041D000491C3160316847543068401C306000F041
:1041E00039FC002700E07F1C380080B2B0EB143FA0
:1041F0001BD24FF48050306000F02CFC002000E017
:10420000401C010089B2B1F5805FECDA29004D1C39
:10421000DFF89C2403009BB2D25C09788A42EFD07D
:104220000120FFF7EEFD0120F2BD2405240D200042
:1042300080B2002818D0200080B2306000F00AFC64
:10424000002000E0401C0100220089B292B291429D
:104250000AD229004D1CDFF8582403009BB2D25C1F
:1042600009788A42EED0DBE70120FFF7CAFD002083
:10427000DAE730B4002300E05B1C1C001500A4B298
:10428000ADB2AC420AD20478401CE4B2E4430D0063
:10429000691C2D782C42EFD0012000E0002030BCBA
:1042A00070472DE9F84F15002A0092B2002A01D17B
:1042B00001208EE00091DFF8F0630099726991426D
:1042C00001D3002085E0318B2A0092B2914201D2C5
:1042D00000207EE00400DFF8DC732A0092B200992F
:1042E0003800FFF7EBFE2A0092B22100380000F000
:1042F000EDFB002801D101206BE05FF000082A00EF
:1043000092B221003800FFF7B4FF002801D05FF01F
:1043100001080098B6F81890B9F1010930EA0909C6
:104320002800318B80B288420DD100200100328BF1
:1043300089B2914219D2010089B2615C020092B245
:10434000B954401CF2E7328B49463800FFF7B6FEFD
:104350000098318B491E08402A0092B2210080B299
:1043600007EB000A5046FEF7A3FE5FF0000A5FF07D
:10437000000B08E0401C010089B242F21072914229
:10438000F8DB1BF1010B584680B203281FDA4046C8
:10439000C0B2012802D14846FFF74DFD328B494695
:1043A0003800FFF790FD2A0092B221000098FFF735
:1043B000E4FE002809D02A0092B221000098FFF7FD
:1043C000DCFE002807D00020D5E75FF0010A504648
:1043D000C0B2BDE8F28F5FF0010AF8E72DE9F843BB
:1043E00005000F0000200020002000200020AE4E1D
:1043F000318BB7FBF1F001FB1070B6F81880B8EB09
:104400000008110089B2338B91FBF3F9110089B2D6
:10441000338B91FBF3F403FB141480B200282AD1F0
:10442000484680B200280DD192B239002800FFF72B
:1044300038FF002840F08C8000208AE0308B3F1845
:10444000308B05444846B0F1010980B2002808D0FD
:10445000328B39002800FFF724FF0028EED100201E
:1044600077E0220092B239002800FFF71AFF0028F7
:104470006ED100206DE01FFA89F9B9F1000F28D143
:104480004046210080B289B2884219D2B4EB0804B8
:10449000424692B239002800FFF703FF002801D1FD
:1044A000002056E017FA88F11FFA88F805EB08009B
:1044B000220092B2FFF7F5FE002849D1002048E023
:1044C00092B239002800FFF7ECFE002840D100200E
:1044D0003FE0B2EB0802100080B2318B90FBF1F9A3
:1044E00092B2308B92FBF0F100FB11221400424695
:1044F00092B239002800FFF7D4FE002801D1002035
:1045000027E017FA88F71FFA88F8454403E0308B54
:104510003F18308B05444846B0F1010980B20028AD
:1045200008D0328B39002800FFF7BBFE0028EED1FF
:1045300000200EE0200080B2002809D0220092B2B4
:1045400039002800FFF7ADFE002801D1002000E06F
:104550000120BDE8F28370B50020FFF752FC5048FF
:10456000002101609F214F4A11700421016000F079
:1045700071FA4F4845788478C6780120FFF741FCEE
:10458000EDB2E4B2240254EA0544F6B2344320000A
:1045900070BD10B5444CFFF7DEFF20602068434932
:1045A000401A08D04449401A10D04449401A18D043
:1045B000401E21D02BE04249201D00F0BBFA5FF4E1
:1045C000001060614FF4805020832AE03D49201D97
:1045D00000F0B0FA5FF4001060614FF48050208367
:1045E0001FE03949201D00F0A5FA5FF4000060616A
:1045F0004FF48050208314E03449201D00F09AFAD3
:104600005FF0807060614FF48050208309E0304992
:10461000201D00F08FFA5FF4001060614FF48050AD
:10462000208310BD80B50020FFF7EBFB1C48002164
:10463000016006211B4A0368D1540168491C0160CE
:1046400000F008FA0120FFF7DCFB01BD38B50020BF
:10465000FFF7D7FB134C05202070114D0220286076
:1046600000F0F8F90120FFF7CCFB0020FFF7C9FBB1
:1046700005202070002060700220286000F0EAF918
:104680000120FFF7BEFB0A484078C007EDD431BDDA
:10469000E0440258000C02581A0C0258180C025838
:1046A0008453002090000020545300204125BF0077
:1046B000A0100020A0200020D4FA020002202D002B
:1046C000507D00085C7D0008807D0008887D000822
:1046D000007D0008F8B50022002200220022DFF849
:1046E0001832002438E05FF00A0C05E0DFF80C22F5
:1046F0009042F8D15FF0090C5FFA8CFC14F00302D1
:10470000D2B292001CFA02FC5CEA0707220092086F
:1047100046F822701A68AA434E68F60300D52A4369
:104720001A605A68AA434E68B60300D52A435A60F5
:104730005FF0B0463268AA434F68FF0200D52A43B3
:104740003260DFF8BC613268AA434F68BF0201D50E
:1047500015432A003260641C102C80F0CC800126A6
:1047600016FA04F20D6815409542F4D14A68022AFF
:1047700002D04A68122A1DD12200D20800EB820220
:10478000176A5FF00F0C14F00702D2B292001CFA05
:1047900002FC37EA0C07D1F810C014F00702D2B2BD
:1047A00092001CFA02FC5CEA07072200D20800EB28
:1047B00082021762D0F800C003272200D2B2520052
:1047C00017FA02F23CEA020C91F804E01EF0030E24
:1047D0002200D2B252001EFA02FE5EEA0C0CC0F8B1
:1047E00000C04A68012A08D04A68022A05D04A68EF
:1047F000112A02D04A68122A1CD1D0F808C022001F
:10480000D2B2520017FA02F23CEA020CD1F80CE0E4
:104810002200D2B252001EFA02FE5EEA0C0CC0F870
:1048200008C04268A640B2434E68C6F30016A640D0
:1048300032434260C6682200D2B252009740BE4363
:104840008F682200D2B2520097403E43C6604A6849
:10485000D2007FF580AF2B4A166856F0020616602C
:10486000126812F002020092009A274E220092086B
:1048700056F822705FF00F0C14F00302D2B29200CF
:104880001CFA02FC37EA0C07204A904202D15FF082
:10489000000C31E71E4A904202D15FF0010C2BE779
:1048A0001C4A904202D15FF0020C25E71A4A90425E
:1048B00002D15FF0030C1FE7184A904202D15FF06B
:1048C000040C19E7164A904202D15FF0050C13E779
:1048D000144A904202D15FF0060C0DE7124A904252
:1048E00002D15FF0070C07E7104A90427FF4FEAE5A
:1048F0005FF0080C00E7F1BD80000058002402586A
:1049000004000058F44402580804005800000258FB
:104910000004025800080258000C02580010025807
:104920000014025800180258001C025800200258B7
:1049300080B5002057490870002200215FF0005028
:1049400000F001F801BD10B5534B1C68844207D13B
:10495000524C24688C4203D1514C246894422FD08D
:1049600018604E4B19604E4B1A604E4B4E4C1C60FB
:10497000D8610020986059611A610720D860002032
:10498000186200205862002098620720D8625FF405
:10499000E02018635FF0806098610020D8630020F9
:1049A00058635FF0004058655FF48000586018005D
:1049B00000F0E6F8002803D0AF213C4800F07CFD71
:1049C00010BD10B586B03A48016851F0020101608F
:1049D000016811F0020105910599016851F0020189
:1049E0000160016811F0020105910599016851F01B
:1049F00002010160006810F00200059005982D4842
:104A0000016851F480510160006810F480500590F5
:104A100005980820009002200190022002900120B9
:104A2000039005200490244C69462000FFF752FEB5
:104A3000102000900520049069462000FFF74AFEF0
:104A4000202000900520049069462000FFF742FED8
:104A500006B010BD80B51948016841F201029142CB
:104A60000FD21749009103689BB2164A16490D48A8
:104A700000F0B4F9002804D04FF4A5710B4800F001
:104A80001BFD01BD0120034908707047002001494A
:104A900008707047BC530020885300208C530020BE
:104AA0009053002040510020003001401C7300084A
:104AB000E0440258F0440258000402588453002095
:104AC00040420F00A01000209000002003000020B2
:104AD00013F0030F09D0521E22BF13F8010B11F877
:104AE00001CBB0EB0C00F3D0704711F0030F14D1E1
:104AF000121F22BF53F8040B51F804CB6045F7D0C6
:104B0000121D0AD200BA9CFA8CFCB0EB0C0038BF24
:104B10006FF0000088BF01207047521E22BF13F8BB
:104B2000010B11F801CBB0EB0C00F6D0521C08BF02
:104B3000104670475FEA000C80EA01039B0715D11D
:104B4000830706D011F8013B00F8013BB3B183079E
:104B5000F8D10A68B2F1013323EA020313F0803F6F
:104B600002BF40F8042B51F8042FF3E711F8013B82
:104B700000F8013B13B111F8013BF9E760467047BB
:104B800070B5040000250020002C01D101201DE19A
:104B9000606A0028A06AB0F5800F8D4E2068B04290
:104BA0000CD020688B49884208D020688A49884206
:104BB00004D0E068102801D3012007E1200000F0B4
:104BC00099FB2168B14209D02168824A914205D0FF
:104BD0002168814A914201D009280CD22168B14252
:104BE00007D021687B4A914203D021687A4A9142DA
:104BF00003D1112801D30120E8E0A06AB0F5800FAD
:104C00001FD12068B0420ED02068724988420AD075
:104C100020687149884206D0206BDFF898158842D9
:104C200001D30120D2E0206B002802D1E5682D04D9
:104C300000E0256B2800000CE168884201D20120C9
:104C4000C4E094F88100002805D1002084F8800099
:104C50002000FFF7B6FE022084F88100206800687B
:104C60004008400021680860A069B0F1806F0CD155
:104C70006068B0F5800F08D1A06B002805D12068CE
:104C8000006850F4805021680860E169A06A01431F
:104C90002943E06B0143E068014320688160616B58
:104CA000606A0143A06B0143A0690143206901438D
:104CB00060690143206A014360680143E06C01437D
:104CC000A0680143A06C0143A06D01432068C1604E
:104CD000A06AB0F5800F4BD1206C012806D1206866
:104CE000006850F400402168086005E02068006812
:104CF00030F4004021680860606C012806D120680B
:104D0000006850F480402168086005E02068006871
:104D100030F48040216808602068B0420AD02068E2
:104D20002C49884206D020682B49884202D0B5F52C
:104D3000702F0DD02068B04207D0206825498842E6
:104D400003D020682449884209D1B5F5F81F06D15F
:104D50002068006850F400502168086005E0206871
:104D6000006830F4005021680860E06A2168086437
:104D70006068002812D1A06A002807D120688068E6
:104D800030F4C05050F4006021688860206880686A
:104D900030F4C06050F48060216888602068006D45
:104DA00040084000216808656068400207D5206817
:104DB000C16821F00041606D01432068C16000209E
:104DC000C4F88400012084F88100002070BD000038
:104DD0000030014000380040003C00402DE9FC411B
:104DE00004000D00170098460020002094F8800071
:104DF000012801D10220DAE1012084F88000FCF7CB
:104E000083FA060094F88100012810D06068B0F59C
:104E1000800F06D1A068002803D194F881000428EF
:104E200005D00220002184F88010C0B2BFE1002D1F
:104E300005D0002F03D0404680B2002805D10120C4
:104E4000002184F88010C0B2B1E194F881000428F8
:104E500002D0052084F881000020C4F88400676631
:104E6000A4F86A80A4F86880E565A4F86280A4F8D4
:104E70006080002020670020606720684068000C88
:104E800000041FFA88F858EA00082068C0F8048077
:104E90002068006850F00100216808606068B0F583
:104EA000800F05D12068006850F400702168086008
:104EB000089DE06810284BD3B4F86200002804D1A4
:104EC000B4F86A00002800F05381B4F862000028AA
:104ED0000FD02068406980070BD5E06D006821681D
:104EE0000862E06D001DE065B4F86200401EA4F8A1
:104EF0006200B4F86A00002811D02068406948F2C6
:104F0000080108420BD02068006B616E0860606E7B
:104F1000001D6066B4F86A00401EA4F86A0015F12E
:104F2000010FC9D0FCF7F0F9801BA842C4D32000C0
:104F300000F042F9002084F88000D4F8840050F496
:104F40008070C4F88400012084F8810001202EE1E3
:104F5000E06808286FD3B4F86200002804D1B4F8E0
:104F60006A00002800F00481B4F86200002823D011
:104F70002068406980071FD5B4F8620002280FD36B
:104F8000E06B00280CD0E06D006821680862E06DDD
:104F9000001DE065B4F86200801EA4F862000BE01A
:104FA000E06D008821680884E06D801CE065B4F83D
:104FB0006200401EA4F86200B4F86A00002821D004
:104FC0002068406910F4604F1CD0206840690004DC
:104FD0000CD52068006B616E0860606E001D606615
:104FE000B4F86A00801EA4F86A000BE02068008E06
:104FF000616E0880606E801C6066B4F86A00401EB6
:10500000A4F86A0015F1010FA5D0FCF77DF9801B0B
:10501000A842A0D3200000F0CFF8002084F8800040
:10502000D4F8840050F48070C4F88400012084F81F
:1050300081000120BBE0B4F86200002804D1B4F87C
:105040006A00002800F09480B4F86200002838D08C
:1050500020684069800734D5B4F8620004280FD373
:10506000E06B41280CD3E06D006821680862E06DB8
:10507000001DE065B4F86200001FA4F8620020E0A3
:10508000B4F8620002280FD3E06B00280CD0E06D6A
:10509000008821680884E06D801CE065B4F8620037
:1050A000801EA4F862000CE0E06D0078216881F8B1
:1050B0002000E06D401CE065B4F86200401EA4F8DA
:1050C0006200B4F86A00002837D02068406910F404
:1050D000604F32D02068406900040CD52068006B16
:1050E000616E0860606E001D6066B4F86A00001FA3
:1050F000A4F86A0021E02068406910F4C04042F240
:10510000010188420CD32068008E616E0880606EB9
:10511000801C6066B4F86A00801EA4F86A000CE087
:10512000206890F83000616E0870606E401C606608
:10513000B4F86A00401EA4F86A0015F1010F3FF4AC
:105140007AAFFCF7E1F8801BA842FFF474AF2000AF
:1051500000F032F8002084F88000D4F8840050F485
:105160008070C4F88400012084F8810001201EE0D2
:105170000095330000220821200000F099F8002853
:1051800005D0D4F8840050F02000C4F8840020003A
:1051900000F012F8002084F88000012084F88100DB
:1051A000D4F88400002801D0012000E00020BDE8F0
:1051B000F681000001000F0001684A6901688969F1
:1051C00051F00801036899610168896951F0100183
:1051D0000368996101680968490849000368196012
:1051E00001680B6931490B4001680B6101688968EE
:1051F00031F440410368996090F8811004290DD082
:1052000091060BD5D0F8841051F08001C0F88410BD
:105210000168896951F020010368996190F8811053
:1052200003291FD051060BD5D0F8841051F004018A
:10523000C0F884100168896951F0400103689961E0
:10524000816AB1F5800F0DD111060BD5D0F884100D
:1052500051F00201C0F884100168896951F08001A1
:105260000368996191050BD5D0F8841051F00101C4
:10527000C0F884100168896951F40071036899616C
:10528000D1050BD5D0F8841051F00801C0F8841076
:105290000168896951F48071026891610021A0F868
:1052A00062100021A0F86A107047000094FCFFFF14
:1052B0002DE9F04105000E0090461F00069C28686D
:1052C00040693040B04201D1012000E00020414659
:1052D000C9B288420BD114F1010FF0D0002C04D0D8
:1052E000FCF712F8C01B8442E9D2032000E0002042
:1052F000BDE8F0810100C86B4009401CC968491C29
:10530000C91DC90800FB01F070470000BFF34F8FB3
:10531000BFF36F8F00205E490860BFF34F8FBFF36C
:105320006F8F5C48016851F400310160BFF34F8F0B
:10533000BFF36F8F704710B4002057490860BFF368
:105340004F8F56480168C1F34E32C1F3C90343F68B
:10535000E07010EA421050EA8370514C206018004F
:10536000431E0028F3D11000421E0028EDD1BFF3E8
:105370004F8F4848016851F480310160BFF34F8F6F
:10538000BFF36F8F10BC704780B500F099F800F044
:105390000BF900F015F900F00FF800F08EF900F0AD
:1053A000FBFA00F071FC00F02DFF01F017F8FFF799
:1053B000BFFAFEF707FD01BD80B59CB0002039485B
:1053C000016831F004010160002000903648016856
:1053D00051F440410160016811F44041009100998D
:1053E00001688904FCD5012009905FF480300A909F
:1053F00000200C90002010900220129002201390A8
:1054000005201490A02015900220169002201890DC
:105410000420179000201A900820199009A8FCF782
:10542000BBF9C0B2002803D09021204800F044F816
:105430003F20019003200290002003900820049058
:1054400040200590402006904FF480600790402057
:105450000890042101A8FBF75DFFC0B2002803D02B
:10546000AB21124800F028F81148016851F0800182
:1054700001601048016851F002010160006810F0FD
:1054800002000090009800F0AAF81DB000BD0000D6
:1054900050EF00E014ED00E084ED00E080ED00E06E
:1054A00060EF00E00C48025818480258C874000821
:1054B00000440258F4440258002900D17047FEE726
:1054C000F8B5FCF7C9FC01208DF800005FF0105022
:1054D000019012208DF8080003208DF80B000020A9
:1054E0008DF80F0001208DF80E0000208DF80D00C2
:1054F00000208DF8010000208DF80A0000208DF8B2
:10550000090000208DF80C006846FCF7BEFC012065
:105510008DF800005FF0C04001900F208DF808006A
:1055200003208DF80B0001208DF80F0000208DF86E
:105530000E0000208DF80D0001208DF801000020E4
:105540008DF80A0000208DF8090000208DF80C006D
:105550006846FCF79AFC01208DF800005FF060506F
:1055600001900F208DF8080003208DF80B0000201B
:105570008DF80F0001208DF80E0000208DF80D0031
:1055800002208DF8010000208DF80A0000208DF81F
:10559000090000208DF80C006846FCF776FC04201A
:1055A000FCF765FC05B000BD80B5FFF7AFFEFFF767
:1055B000C2FE01BD80B500F0B3F901BD7047704770
:1055C00080B50320FCF72BFC0F20FCF79BFB002889
:1055D00001D0012002E000F00BF8002002BD0348DA
:1055E000016851F00101016070470000200400587B
:1055F00070470000DFF818230100C9B252F83110DB
:1056000009690300DBB202EBC3039B88194201D195
:10561000002100E00121C0B202EBC0008079C9B2D4
:10562000814201D1012000E000207047F8B504005C
:105630002000C0B208281BDA0026FF27002508E05A
:105640002800C0B2FFF7D6FF002801D0761C2F003B
:105650006D1C2800C0B20828F2DBF6B2012E05D17D
:10566000FFB2E4B2A74201D1012025E0002023E0EF
:105670002000C0B208280DD10020FFF7BBFF002892
:1056800006D00120FFF7B6FF002801D0012013E06B
:10569000002011E0E4B2092C0DD10120FFF7AAFF90
:1056A000002806D00220FFF7A5FF002801D0012026
:1056B00002E0002000E00020F2BD80B500F051F8CB
:1056C00000F001F801BD10B586B0DFF848020168AE
:1056D00051F002010160016811F00201009100998E
:1056E000016851F004010160016811F004010091AA
:1056F0000099016851F040010160016811F040011A
:1057000000910099016851F080010160016811F079
:10571000800100910099016851F480710160006876
:1057200010F48070009000980020029000200390F8
:105730000320049000240EE075482100C9B200EB5C
:10574000C1018988019101A92200D2B250F832002A
:10575000FEF7C0FF641C2000C0B20828ECDB06B0D6
:1057600010BD80B56C48002181720021C1720021FA
:10577000017300201FE0694964220300DBB21B01B2
:105780000B441A8102220300DBB21B010B441A7185
:1057900000220300DBB21B010B449A7200220300BB
:1057A000DBB21B010B44DA7200220300DBB21B01E7
:1057B00019440A73401C0100C9B20A29DBDB062226
:1057C0006421032000F01CF806226421042000F06C
:1057D00017F806226421052000F012F80622642141
:1057E000062000F00DF801BD4B49CA7A8854C87AEA
:1057F000401CC872C87A0A2801DB0020C8727047B2
:1058000010B4464B0400E4B224011C442181010081
:10581000C9B209011944CA720021C0B2000118447A
:10582000017310BC704738B504003C482100C9B270
:10583000090100EB01052000C0B2FFF7F7FE0028C8
:1058400046D02879052802DA052028715EE02879FB
:105850000A2803DA2879401C287157E0A87A002822
:105860000AD10120A8722100C9B203204143491C7A
:105870000800C0B2FFF7B8FF2889002846D0E888A2
:10588000298988420FD2E888401CE880E888298965
:1058900088423BD1E4B203204443E41C2000C0B260
:1058A000FFF7A2FF32E0E87A00282FD0287B401CC7
:1058B0002873287BE97A884228D300202873E4B231
:1058C00003204443641C2000C0B2FFF78DFF1DE09D
:1058D0002879062802DB0520287113E028790028A2
:1058E00003D02879401E28710CE0A87A012809D13C
:1058F0000020A872E4B203204443A41C2000C0B2DC
:10590000FFF772FF0020E8800020287331BD0000FF
:105910004C750008E044025870530020A05000204D
:1059200010B5002404E02000C0B2FFF77CFF641C27
:105930002000C0B20A28F6DB10BD0000020012B23F
:10594000002A05D40901DFF8DC2200B2115408E076
:105950000901DFF8D42200B210F00F00104400F863
:10596000041C704780B5411EB1F1807F01D3012036
:1059700011E0401EDFF8B41208600F215FF0FF3025
:10598000FFF7DCFF0020DFF8A81208600720DFF82F
:10599000A4120860002002BD10B500201BE00C21FD
:1059A000DFF894220300DBB24B43134400245C6015
:1059B0000300DBB24B43134400249C600300DBB2C2
:1059C0004B43134400245C7000230400E4B201FB49
:1059D00004F15354401C0100C9B20429DFDBDFF895
:1059E0005C0200684FF47A71B0FBF1F0FFF7BAFF88
:1059F0000120DFF84C12087000F05FF810BD10B500
:105A0000DFF840120868002808D00868401E0860C7
:105A1000002803D10120DFF83012087000240AE0CA
:105A2000DFF814122200D2B20C20424301EB020034
:105A300000F020F8641C2000C0B20428F0DBDFF87E
:105A40000C020168491C016001687FF0004291422C
:105A500001D100210160FFF7B1FDDFF8F401017809
:105A6000491C017001780A2903DB00210170FFF74E
:105A7000A1FD10BD416800290BD04168491E41605D
:105A8000002906D1012141700178012901D18168E5
:105A900041607047012080F310886C480068002145
:105AA00081F31088704780B500F0FAFC64480078F4
:105AB000002801D0FFF7A3FF01BD00B591B001A8F8
:105AC000402100F0F9FC5FF0804064490A6852F020
:105AD00001020A60096811F0010100910099604912
